{
  "contractName": "ACLManaged",
  "abi": [
    {
      "constant": false,
      "inputs": [
        {
          "name": "_adminAddress",
          "type": "address"
        }
      ],
      "name": "setAdminAddress",
      "outputs": [
        {
          "name": "",
          "type": "bool"
        }
      ],
      "payable": false,
      "stateMutability": "nonpayable",
      "type": "function"
    },
    {
      "constant": false,
      "inputs": [
        {
          "name": "_opsAddress",
          "type": "address"
        }
      ],
      "name": "setOpsAddress",
      "outputs": [
        {
          "name": "",
          "type": "bool"
        }
      ],
      "payable": false,
      "stateMutability": "nonpayable",
      "type": "function"
    },
    {
      "constant": true,
      "inputs": [],
      "name": "owner",
      "outputs": [
        {
          "name": "",
          "type": "address"
        }
      ],
      "payable": false,
      "stateMutability": "view",
      "type": "function"
    },
    {
      "constant": true,
      "inputs": [],
      "name": "opsAddress",
      "outputs": [
        {
          "name": "",
          "type": "address"
        }
      ],
      "payable": false,
      "stateMutability": "view",
      "type": "function"
    },
    {
      "constant": false,
      "inputs": [
        {
          "name": "newOwner",
          "type": "address"
        }
      ],
      "name": "transferOwnership",
      "outputs": [],
      "payable": false,
      "stateMutability": "nonpayable",
      "type": "function"
    },
    {
      "constant": true,
      "inputs": [],
      "name": "adminAddress",
      "outputs": [
        {
          "name": "",
          "type": "address"
        }
      ],
      "payable": false,
      "stateMutability": "view",
      "type": "function"
    },
    {
      "inputs": [],
      "payable": false,
      "stateMutability": "nonpayable",
      "type": "constructor"
    },
    {
      "anonymous": false,
      "inputs": [
        {
          "indexed": true,
          "name": "previousOwner",
          "type": "address"
        },
        {
          "indexed": true,
          "name": "newOwner",
          "type": "address"
        }
      ],
      "name": "OwnershipTransferred",
      "type": "event"
    }
  ],
  "bytecode": "0x6060604052341561000f57600080fd5b336000806101000a81548173ffffffffffffffffffffffffffffffffffffffff021916908373ffffffffffffffffffffffffffffffffffffffff1602179055506105978061005e6000396000f300606060405260043610610078576000357c0100000000000000000000000000000000000000000000000000000000900463ffffffff1680632c1e816d1461007d578063707789c5146100ce5780638da5cb5b1461011f5780638ea6437614610174578063f2fde38b146101c9578063fc6f946814610202575b600080fd5b341561008857600080fd5b6100b4600480803573ffffffffffffffffffffffffffffffffffffffff16906020019091905050610257565b604051808215151515815260200191505060405180910390f35b34156100d957600080fd5b610105600480803573ffffffffffffffffffffffffffffffffffffffff169060200190919050506102fe565b604051808215151515815260200191505060405180910390f35b341561012a57600080fd5b6101326103a5565b604051808273ffffffffffffffffffffffffffffffffffffffff1673ffffffffffffffffffffffffffffffffffffffff16815260200191505060405180910390f35b341561017f57600080fd5b6101876103ca565b604051808273ffffffffffffffffffffffffffffffffffffffff1673ffffffffffffffffffffffffffffffffffffffff16815260200191505060405180910390f35b34156101d457600080fd5b610200600480803573ffffffffffffffffffffffffffffffffffffffff169060200190919050506103f0565b005b341561020d57600080fd5b610215610545565b604051808273ffffffffffffffffffffffffffffffffffffffff1673ffffffffffffffffffffffffffffffffffffffff16815260200191505060405180910390f35b60008060009054906101000a900473ffffffffffffffffffffffffffffffffffffffff1673ffffffffffffffffffffffffffffffffffffffff163373ffffffffffffffffffffffffffffffffffffffff161415156102b457600080fd5b81600260006101000a81548173ffffffffffffffffffffffffffffffffffffffff021916908373ffffffffffffffffffffffffffffffffffffffff16021790555060019050919050565b60008060009054906101000a900473ffffffffffffffffffffffffffffffffffffffff1673ffffffffffffffffffffffffffffffffffffffff163373ffffffffffffffffffffffffffffffffffffffff1614151561035b57600080fd5b81600160006101000a81548173ffffffffffffffffffffffffffffffffffffffff021916908373ffffffffffffffffffffffffffffffffffffffff16021790555060019050919050565b6000809054906101000a900473ffffffffffffffffffffffffffffffffffffffff1681565b600160009054906101000a900473ffffffffffffffffffffffffffffffffffffffff1681565b6000809054906101000a900473ffffffffffffffffffffffffffffffffffffffff1673ffffffffffffffffffffffffffffffffffffffff163373ffffffffffffffffffffffffffffffffffffffff1614151561044b57600080fd5b600073ffffffffffffffffffffffffffffffffffffffff168173ffffffffffffffffffffffffffffffffffffffff161415151561048757600080fd5b8073ffffffffffffffffffffffffffffffffffffffff166000809054906101000a900473ffffffffffffffffffffffffffffffffffffffff1673ffffffffffffffffffffffffffffffffffffffff167f8be0079c531659141344cd1fd0a4f28419497f9722a3daafe3b4186f6b6457e060405160405180910390a3806000806101000a81548173ffffffffffffffffffffffffffffffffffffffff021916908373ffffffffffffffffffffffffffffffffffffffff16021790555050565b600260009054906101000a900473ffffffffffffffffffffffffffffffffffffffff16815600a165627a7a723058204967799ab72b8dccaa388444727ab6e392119ace17473f6482359e2778a207cc0029",
  "source": "pragma solidity ^0.4.17;\n\nimport 'zeppelin-solidity/contracts/ownership/Ownable.sol';\n\ncontract ACLManaged is Ownable {\n    \n    ///////////////////////////\n    // ACLManaged PROPERTIES //\n    ///////////////////////////\n\n    // The operational acl address\n    address public opsAddress;\n\n    // The admin acl address\n    address public adminAddress;\n\n    ////////////////////////////////////////\n    // ACLManaged FUNCTIONS and MODIFIERS //\n    ////////////////////////////////////////\n\n    function ACLManaged() public Ownable() {}\n\n    // Updates the opsAddress propety with the new _opsAddress value\n    function setOpsAddress(address _opsAddress) external onlyOwner returns (bool) {\n        opsAddress = _opsAddress;\n        return true;\n    }\n\n    // Updates the adminAddress propety with the new _adminAddress value\n    function setAdminAddress(address _adminAddress) external onlyOwner returns (bool) {\n        adminAddress = _adminAddress;\n        return true;\n    }\n\n    // Checks whether the msg.sender address is equal to the adminAddress property or not\n    modifier onlyAdmin() {\n        //Needs to be set. Default constructor will set 0x0;\n        address _address = msg.sender;\n        require(_address != address(0));\n        require(_address == adminAddress);\n        _;\n    }\n\n    // Checks whether the msg.sender address is equal to the opsAddress property or not\n    modifier onlyOps() {\n        //Needs to be set. Default constructor will set 0x0;\n        address _address = msg.sender;\n        require(_address != address(0));\n        require(_address == opsAddress);\n        _;\n    }\n\n    // Checks whether the msg.sender address is equal to the opsAddress or adminAddress property\n    modifier onlyAdminAndOps() {\n        //Needs to be set. Default constructor will set 0x0;\n        address _address = msg.sender;\n        require(_address != address(0));\n        require(_address == opsAddress || _address == adminAddress);\n        _;\n    }\n}",
  "sourcePath": "/Volumes/Workspace/projects/jumbo-contracts/contracts/ACLManaged.sol",
  "compiler": {
    "name": "solc",
    "version": "0.4.18+commit.9cf6e910.Emscripten.clang"
  },
  "schemaVersion": "1.0.1",
  "updatedAt": "2018-01-20T22:19:23.393Z"
}