{
  "contractName": "Crowdsale",
  "abi": [
    {
      "constant": true,
      "inputs": [],
      "name": "ledgerContract",
      "outputs": [
        {
          "name": "",
          "type": "address"
        }
      ],
      "payable": false,
      "stateMutability": "view",
      "type": "function"
    },
    {
      "constant": false,
      "inputs": [
        {
          "name": "_newMaxContribution",
          "type": "uint256"
        }
      ],
      "name": "setMaxContribution",
      "outputs": [
        {
          "name": "",
          "type": "bool"
        }
      ],
      "payable": false,
      "stateMutability": "nonpayable",
      "type": "function"
    },
    {
      "constant": false,
      "inputs": [
        {
          "name": "_newSaleSupply",
          "type": "uint256"
        }
      ],
      "name": "setSaleSupply",
      "outputs": [
        {
          "name": "",
          "type": "bool"
        }
      ],
      "payable": false,
      "stateMutability": "nonpayable",
      "type": "function"
    },
    {
      "constant": true,
      "inputs": [],
      "name": "INITIAL_TOKENS_PER_ETHER",
      "outputs": [
        {
          "name": "",
          "type": "uint256"
        }
      ],
      "payable": false,
      "stateMutability": "view",
      "type": "function"
    },
    {
      "constant": false,
      "inputs": [
        {
          "name": "_adminAddress",
          "type": "address"
        }
      ],
      "name": "setAdminAddress",
      "outputs": [
        {
          "name": "",
          "type": "bool"
        }
      ],
      "payable": false,
      "stateMutability": "nonpayable",
      "type": "function"
    },
    {
      "constant": false,
      "inputs": [],
      "name": "purchaseTokens",
      "outputs": [
        {
          "name": "",
          "type": "bool"
        }
      ],
      "payable": true,
      "stateMutability": "payable",
      "type": "function"
    },
    {
      "constant": true,
      "inputs": [],
      "name": "weiRaised",
      "outputs": [
        {
          "name": "",
          "type": "uint256"
        }
      ],
      "payable": false,
      "stateMutability": "view",
      "type": "function"
    },
    {
      "constant": true,
      "inputs": [],
      "name": "MIN_CONTRIBUTION",
      "outputs": [
        {
          "name": "",
          "type": "uint256"
        }
      ],
      "payable": false,
      "stateMutability": "view",
      "type": "function"
    },
    {
      "constant": false,
      "inputs": [
        {
          "name": "_newMinContribution",
          "type": "uint256"
        }
      ],
      "name": "setMinContribution",
      "outputs": [
        {
          "name": "",
          "type": "bool"
        }
      ],
      "payable": false,
      "stateMutability": "nonpayable",
      "type": "function"
    },
    {
      "constant": true,
      "inputs": [],
      "name": "J8T_DECIMALS_FACTOR",
      "outputs": [
        {
          "name": "",
          "type": "uint256"
        }
      ],
      "payable": false,
      "stateMutability": "view",
      "type": "function"
    },
    {
      "constant": false,
      "inputs": [],
      "name": "finalize",
      "outputs": [
        {
          "name": "",
          "type": "bool"
        }
      ],
      "payable": false,
      "stateMutability": "nonpayable",
      "type": "function"
    },
    {
      "constant": false,
      "inputs": [
        {
          "name": "_account",
          "type": "address"
        },
        {
          "name": "_permission",
          "type": "uint8"
        }
      ],
      "name": "updateWhitelist",
      "outputs": [
        {
          "name": "",
          "type": "bool"
        }
      ],
      "payable": false,
      "stateMutability": "nonpayable",
      "type": "function"
    },
    {
      "constant": true,
      "inputs": [],
      "name": "wallet",
      "outputs": [
        {
          "name": "",
          "type": "address"
        }
      ],
      "payable": false,
      "stateMutability": "view",
      "type": "function"
    },
    {
      "constant": true,
      "inputs": [],
      "name": "tokenContract",
      "outputs": [
        {
          "name": "",
          "type": "address"
        }
      ],
      "payable": false,
      "stateMutability": "view",
      "type": "function"
    },
    {
      "constant": true,
      "inputs": [],
      "name": "TOKEN_DECIMALS",
      "outputs": [
        {
          "name": "",
          "type": "uint8"
        }
      ],
      "payable": false,
      "stateMutability": "view",
      "type": "function"
    },
    {
      "constant": true,
      "inputs": [],
      "name": "TOKEN_SALE_SUPPLY",
      "outputs": [
        {
          "name": "",
          "type": "uint256"
        }
      ],
      "payable": false,
      "stateMutability": "view",
      "type": "function"
    },
    {
      "constant": true,
      "inputs": [],
      "name": "totalTokensSold",
      "outputs": [
        {
          "name": "",
          "type": "uint256"
        }
      ],
      "payable": false,
      "stateMutability": "view",
      "type": "function"
    },
    {
      "constant": false,
      "inputs": [
        {
          "name": "_opsAddress",
          "type": "address"
        }
      ],
      "name": "setOpsAddress",
      "outputs": [
        {
          "name": "",
          "type": "bool"
        }
      ],
      "payable": false,
      "stateMutability": "nonpayable",
      "type": "function"
    },
    {
      "constant": true,
      "inputs": [],
      "name": "saleHasFinished",
      "outputs": [
        {
          "name": "",
          "type": "bool"
        }
      ],
      "payable": false,
      "stateMutability": "view",
      "type": "function"
    },
    {
      "constant": true,
      "inputs": [],
      "name": "START_TIMESTAMP",
      "outputs": [
        {
          "name": "",
          "type": "uint256"
        }
      ],
      "payable": false,
      "stateMutability": "view",
      "type": "function"
    },
    {
      "constant": false,
      "inputs": [
        {
          "name": "_end",
          "type": "uint256"
        }
      ],
      "name": "setEndTimestamp",
      "outputs": [
        {
          "name": "",
          "type": "bool"
        }
      ],
      "payable": false,
      "stateMutability": "nonpayable",
      "type": "function"
    },
    {
      "constant": false,
      "inputs": [
        {
          "name": "_newWallet",
          "type": "address"
        }
      ],
      "name": "updateWallet",
      "outputs": [
        {
          "name": "",
          "type": "bool"
        }
      ],
      "payable": false,
      "stateMutability": "nonpayable",
      "type": "function"
    },
    {
      "constant": true,
      "inputs": [],
      "name": "isFinalized",
      "outputs": [
        {
          "name": "",
          "type": "bool"
        }
      ],
      "payable": false,
      "stateMutability": "view",
      "type": "function"
    },
    {
      "constant": true,
      "inputs": [],
      "name": "owner",
      "outputs": [
        {
          "name": "",
          "type": "address"
        }
      ],
      "payable": false,
      "stateMutability": "view",
      "type": "function"
    },
    {
      "constant": true,
      "inputs": [],
      "name": "opsAddress",
      "outputs": [
        {
          "name": "",
          "type": "address"
        }
      ],
      "payable": false,
      "stateMutability": "view",
      "type": "function"
    },
    {
      "constant": false,
      "inputs": [
        {
          "name": "_tokensPerEther",
          "type": "uint256"
        }
      ],
      "name": "setTokensPerEther",
      "outputs": [
        {
          "name": "",
          "type": "bool"
        }
      ],
      "payable": false,
      "stateMutability": "nonpayable",
      "type": "function"
    },
    {
      "constant": true,
      "inputs": [],
      "name": "MAX_CONTRIBUTION",
      "outputs": [
        {
          "name": "",
          "type": "uint256"
        }
      ],
      "payable": false,
      "stateMutability": "view",
      "type": "function"
    },
    {
      "constant": true,
      "inputs": [
        {
          "name": "",
          "type": "address"
        }
      ],
      "name": "whitelist",
      "outputs": [
        {
          "name": "",
          "type": "uint8"
        }
      ],
      "payable": false,
      "stateMutability": "view",
      "type": "function"
    },
    {
      "constant": true,
      "inputs": [],
      "name": "MIN_CONTRIBUTION_WEIS",
      "outputs": [
        {
          "name": "",
          "type": "uint256"
        }
      ],
      "payable": false,
      "stateMutability": "view",
      "type": "function"
    },
    {
      "constant": true,
      "inputs": [],
      "name": "MAX_CONTRIBUTION_WEIS",
      "outputs": [
        {
          "name": "",
          "type": "uint256"
        }
      ],
      "payable": false,
      "stateMutability": "view",
      "type": "function"
    },
    {
      "constant": true,
      "inputs": [],
      "name": "END_TIMESTAMP",
      "outputs": [
        {
          "name": "",
          "type": "uint256"
        }
      ],
      "payable": false,
      "stateMutability": "view",
      "type": "function"
    },
    {
      "constant": true,
      "inputs": [],
      "name": "dollars_per_kilo_ether",
      "outputs": [
        {
          "name": "",
          "type": "uint256"
        }
      ],
      "payable": false,
      "stateMutability": "view",
      "type": "function"
    },
    {
      "constant": true,
      "inputs": [],
      "name": "endTimestamp",
      "outputs": [
        {
          "name": "",
          "type": "uint256"
        }
      ],
      "payable": false,
      "stateMutability": "view",
      "type": "function"
    },
    {
      "constant": true,
      "inputs": [],
      "name": "saleSupply",
      "outputs": [
        {
          "name": "",
          "type": "uint256"
        }
      ],
      "payable": false,
      "stateMutability": "view",
      "type": "function"
    },
    {
      "constant": false,
      "inputs": [
        {
          "name": "_start",
          "type": "uint256"
        }
      ],
      "name": "setStartTimestamp",
      "outputs": [
        {
          "name": "",
          "type": "bool"
        }
      ],
      "payable": false,
      "stateMutability": "nonpayable",
      "type": "function"
    },
    {
      "constant": true,
      "inputs": [],
      "name": "ETH_DECIMALS_FACTOR",
      "outputs": [
        {
          "name": "",
          "type": "uint256"
        }
      ],
      "payable": false,
      "stateMutability": "view",
      "type": "function"
    },
    {
      "constant": true,
      "inputs": [],
      "name": "currentTime",
      "outputs": [
        {
          "name": "",
          "type": "uint256"
        }
      ],
      "payable": false,
      "stateMutability": "view",
      "type": "function"
    },
    {
      "constant": false,
      "inputs": [
        {
          "name": "_contributor",
          "type": "address"
        },
        {
          "name": "_tokens",
          "type": "uint256"
        },
        {
          "name": "_contributorPhase",
          "type": "uint8"
        }
      ],
      "name": "addPresale",
      "outputs": [
        {
          "name": "",
          "type": "bool"
        }
      ],
      "payable": true,
      "stateMutability": "payable",
      "type": "function"
    },
    {
      "constant": true,
      "inputs": [],
      "name": "startTimestamp",
      "outputs": [
        {
          "name": "",
          "type": "uint256"
        }
      ],
      "payable": false,
      "stateMutability": "view",
      "type": "function"
    },
    {
      "constant": false,
      "inputs": [
        {
          "name": "_tokensPerEther",
          "type": "uint256"
        }
      ],
      "name": "forceTokensPerEther",
      "outputs": [
        {
          "name": "",
          "type": "bool"
        }
      ],
      "payable": false,
      "stateMutability": "nonpayable",
      "type": "function"
    },
    {
      "constant": false,
      "inputs": [
        {
          "name": "newOwner",
          "type": "address"
        }
      ],
      "name": "transferOwnership",
      "outputs": [],
      "payable": false,
      "stateMutability": "nonpayable",
      "type": "function"
    },
    {
      "constant": true,
      "inputs": [],
      "name": "tokensPerEther",
      "outputs": [
        {
          "name": "",
          "type": "uint256"
        }
      ],
      "payable": false,
      "stateMutability": "view",
      "type": "function"
    },
    {
      "constant": true,
      "inputs": [],
      "name": "adminAddress",
      "outputs": [
        {
          "name": "",
          "type": "address"
        }
      ],
      "payable": false,
      "stateMutability": "view",
      "type": "function"
    },
    {
      "constant": false,
      "inputs": [
        {
          "name": "_contributor",
          "type": "address"
        },
        {
          "name": "_contributorPhase",
          "type": "uint8"
        }
      ],
      "name": "revokePresale",
      "outputs": [
        {
          "name": "",
          "type": "bool"
        }
      ],
      "payable": true,
      "stateMutability": "payable",
      "type": "function"
    },
    {
      "inputs": [
        {
          "name": "_tokenContract",
          "type": "address"
        },
        {
          "name": "_ledgerContract",
          "type": "address"
        },
        {
          "name": "_wallet",
          "type": "address"
        }
      ],
      "payable": false,
      "stateMutability": "nonpayable",
      "type": "constructor"
    },
    {
      "payable": true,
      "stateMutability": "payable",
      "type": "fallback"
    },
    {
      "anonymous": false,
      "inputs": [
        {
          "indexed": false,
          "name": "_contributor",
          "type": "address"
        },
        {
          "indexed": false,
          "name": "_amount",
          "type": "uint256"
        }
      ],
      "name": "TokensPurchased",
      "type": "event"
    },
    {
      "anonymous": false,
      "inputs": [
        {
          "indexed": false,
          "name": "_who",
          "type": "address"
        },
        {
          "indexed": false,
          "name": "_account",
          "type": "address"
        },
        {
          "indexed": false,
          "name": "_phase",
          "type": "uint8"
        }
      ],
      "name": "WhiteListUpdated",
      "type": "event"
    },
    {
      "anonymous": false,
      "inputs": [],
      "name": "ContractCreated",
      "type": "event"
    },
    {
      "anonymous": false,
      "inputs": [
        {
          "indexed": false,
          "name": "_contributor",
          "type": "address"
        },
        {
          "indexed": false,
          "name": "_amount",
          "type": "uint256"
        },
        {
          "indexed": false,
          "name": "_phase",
          "type": "uint8"
        }
      ],
      "name": "PresaleAdded",
      "type": "event"
    },
    {
      "anonymous": false,
      "inputs": [
        {
          "indexed": false,
          "name": "_who",
          "type": "address"
        },
        {
          "indexed": false,
          "name": "_oldValue",
          "type": "uint256"
        },
        {
          "indexed": false,
          "name": "_newValue",
          "type": "uint256"
        }
      ],
      "name": "TokensPerEtherUpdated",
      "type": "event"
    },
    {
      "anonymous": false,
      "inputs": [
        {
          "indexed": false,
          "name": "_who",
          "type": "address"
        },
        {
          "indexed": false,
          "name": "_oldValue",
          "type": "uint256"
        },
        {
          "indexed": false,
          "name": "_newValue",
          "type": "uint256"
        }
      ],
      "name": "StartTimestampUpdated",
      "type": "event"
    },
    {
      "anonymous": false,
      "inputs": [
        {
          "indexed": false,
          "name": "_who",
          "type": "address"
        },
        {
          "indexed": false,
          "name": "_oldValue",
          "type": "uint256"
        },
        {
          "indexed": false,
          "name": "_newValue",
          "type": "uint256"
        }
      ],
      "name": "EndTimestampUpdated",
      "type": "event"
    },
    {
      "anonymous": false,
      "inputs": [
        {
          "indexed": false,
          "name": "_who",
          "type": "address"
        },
        {
          "indexed": false,
          "name": "_oldWallet",
          "type": "address"
        },
        {
          "indexed": false,
          "name": "_newWallet",
          "type": "address"
        }
      ],
      "name": "WalletUpdated",
      "type": "event"
    },
    {
      "anonymous": false,
      "inputs": [
        {
          "indexed": false,
          "name": "_who",
          "type": "address"
        },
        {
          "indexed": false,
          "name": "_oldValue",
          "type": "uint256"
        },
        {
          "indexed": false,
          "name": "_newValue",
          "type": "uint256"
        }
      ],
      "name": "SaleSupplyUpdated",
      "type": "event"
    },
    {
      "anonymous": false,
      "inputs": [
        {
          "indexed": false,
          "name": "_who",
          "type": "address"
        },
        {
          "indexed": false,
          "name": "_oldValue",
          "type": "uint256"
        },
        {
          "indexed": false,
          "name": "_newValue",
          "type": "uint256"
        }
      ],
      "name": "MinContributionUpdated",
      "type": "event"
    },
    {
      "anonymous": false,
      "inputs": [
        {
          "indexed": false,
          "name": "_who",
          "type": "address"
        },
        {
          "indexed": false,
          "name": "_oldValue",
          "type": "uint256"
        },
        {
          "indexed": false,
          "name": "_newValue",
          "type": "uint256"
        }
      ],
      "name": "MaxContributionUpdated",
      "type": "event"
    },
    {
      "anonymous": false,
      "inputs": [
        {
          "indexed": false,
          "name": "_who",
          "type": "address"
        },
        {
          "indexed": false,
          "name": "_timestamp",
          "type": "uint256"
        }
      ],
      "name": "Finalized",
      "type": "event"
    },
    {
      "anonymous": false,
      "inputs": [
        {
          "indexed": false,
          "name": "_who",
          "type": "address"
        },
        {
          "indexed": false,
          "name": "_amount",
          "type": "uint256"
        },
        {
          "indexed": false,
          "name": "_timestamp",
          "type": "uint256"
        }
      ],
      "name": "Burned",
      "type": "event"
    },
    {
      "anonymous": false,
      "inputs": [
        {
          "indexed": true,
          "name": "previousOwner",
          "type": "address"
        },
        {
          "indexed": true,
          "name": "newOwner",
          "type": "address"
        }
      ],
      "name": "OwnershipTransferred",
      "type": "event"
    }
  ],
  "bytecode": "0x60606040526000600d60146101000a81548160ff02191690831515021790555034156200002b57600080fd5b60405160608062002fcd83398101604052808051906020019091908051906020019091908051906020019091905050600080600080600080336000806101000a81548173ffffffffffffffffffffffffffffffffffffffff021916908373ffffffffffffffffffffffffffffffffffffffff160217905550635aa07d009550635b3819809450600860ff16600a0a631ad2748002935067016345785d8a0000925068056bc75e2d631000009150620000ff600a62061a80620003566401000000000262002914179091906401000000009004565b90506200011f620003726401000000000262002030176401000000009004565b861115156200012d57600080fd5b85851115156200013c57600080fd5b6000811115156200014c57600080fd5b600073ffffffffffffffffffffffffffffffffffffffff168973ffffffffffffffffffffffffffffffffffffffff16141515156200018957600080fd5b600073ffffffffffffffffffffffffffffffffffffffff168873ffffffffffffffffffffffffffffffffffffffff1614151515620001c657600080fd5b600073ffffffffffffffffffffffffffffffffffffffff168773ffffffffffffffffffffffffffffffffffffffff16141515156200020357600080fd5b87600460006101000a81548173ffffffffffffffffffffffffffffffffffffffff021916908373ffffffffffffffffffffffffffffffffffffffff16021790555088600360006101000a81548173ffffffffffffffffffffffffffffffffffffffff021916908373ffffffffffffffffffffffffffffffffffffffff1602179055508560058190555084600681905550806007819055508360088190555082600b8190555081600c8190555086600d60006101000a81548173ffffffffffffffffffffffffffffffffffffffff021916908373ffffffffffffffffffffffffffffffffffffffff1602179055506000600a8190555060006009819055506000600d60146101000a81548160ff0219169083151502179055507fabd60e51a18b36604f00b5547417cf9051cc5c3a2e80e68206296e14be19f0bc60405160405180910390a15050505050505050506200037a565b60008082848115156200036557fe5b0490508091505092915050565b600042905090565b612c43806200038a6000396000f30060606040526004361061021a576000357c0100000000000000000000000000000000000000000000000000000000900463ffffffff168063026345b61461022557806303ed9d211461027a57806304db5eed146102b55780631a8fc985146102f05780632c1e816d146103195780633290ce291461036a5780634042b66f1461038c57806340650c91146103b5578063473b0d46146103de578063498b7718146104195780634bb278f3146104425780634d399cb31461046f578063521eb273146104cc57806355a373d6146105215780635b7f415c146105765780635d0cb15d146105a557806363b20117146105ce578063707789c5146105f757806374c06f5d14610648578063781cd99d146106755780637df6a6c81461069e578063848b86e3146106d95780638d4e40831461072a5780638da5cb5b146107575780638ea64376146107ac578063904bd6d01461080157806394d95f8f1461083c5780639b19251a146108655780639d7233d4146108c05780639f132677146108e9578063a07c765f14610912578063a5f75a5e1461093b578063a85adeab14610964578063a96af0f41461098d578063c44bef75146109b6578063ce809e4e146109f1578063d18e81b314610a1a578063dbf3d24214610a43578063e6fd48bc14610a9e578063f190501d14610ac7578063f2fde38b14610b02578063f856d60514610b3b578063fc6f946814610b64578063fc914fdb14610bb9575b610222610c0b565b50005b341561023057600080fd5b6102386110e4565b604051808273ffffffffffffffffffffffffffffffffffffffff1673ffffffffffffffffffffffffffffffffffffffff16815260200191505060405180910390f35b341561028557600080fd5b61029b600480803590602001909190505061110a565b604051808215151515815260200191505060405180910390f35b34156102c057600080fd5b6102d66004808035906020019091905050611236565b604051808215151515815260200191505060405180910390f35b34156102fb57600080fd5b610303611362565b6040518082815260200191505060405180910390f35b341561032457600080fd5b610350600480803573ffffffffffffffffffffffffffffffffffffffff1690602001909190505061137c565b604051808215151515815260200191505060405180910390f35b610372610c0b565b604051808215151515815260200191505060405180910390f35b341561039757600080fd5b61039f611423565b6040518082815260200191505060405180910390f35b34156103c057600080fd5b6103c8611429565b6040518082815260200191505060405180910390f35b34156103e957600080fd5b6103ff600480803590602001909190505061142f565b604051808215151515815260200191505060405180910390f35b341561042457600080fd5b61042c61155b565b6040518082815260200191505060405180910390f35b341561044d57600080fd5b610455611566565b604051808215151515815260200191505060405180910390f35b341561047a57600080fd5b6104b2600480803573ffffffffffffffffffffffffffffffffffffffff1690602001909190803560ff16906020019091905050611612565b604051808215151515815260200191505060405180910390f35b34156104d757600080fd5b6104df611884565b604051808273ffffffffffffffffffffffffffffffffffffffff1673ffffffffffffffffffffffffffffffffffffffff16815260200191505060405180910390f35b341561052c57600080fd5b6105346118aa565b604051808273ffffffffffffffffffffffffffffffffffffffff1673ffffffffffffffffffffffffffffffffffffffff16815260200191505060405180910390f35b341561058157600080fd5b6105896118d0565b604051808260ff1660ff16815260200191505060405180910390f35b34156105b057600080fd5b6105b86118d5565b6040518082815260200191505060405180910390f35b34156105d957600080fd5b6105e16118e6565b6040518082815260200191505060405180910390f35b341561060257600080fd5b61062e600480803573ffffffffffffffffffffffffffffffffffffffff169060200190919050506118ec565b604051808215151515815260200191505060405180910390f35b341561065357600080fd5b61065b611993565b604051808215151515815260200191505060405180910390f35b341561068057600080fd5b6106886119eb565b6040518082815260200191505060405180910390f35b34156106a957600080fd5b6106bf60048080359060200190919050506119f3565b604051808215151515815260200191505060405180910390f35b34156106e457600080fd5b610710600480803573ffffffffffffffffffffffffffffffffffffffff16906020019091905050611b2f565b604051808215151515815260200191505060405180910390f35b341561073557600080fd5b61073d611d69565b604051808215151515815260200191505060405180910390f35b341561076257600080fd5b61076a611d7c565b604051808273ffffffffffffffffffffffffffffffffffffffff1673ffffffffffffffffffffffffffffffffffffffff16815260200191505060405180910390f35b34156107b757600080fd5b6107bf611da1565b604051808273ffffffffffffffffffffffffffffffffffffffff1673ffffffffffffffffffffffffffffffffffffffff16815260200191505060405180910390f35b341561080c57600080fd5b6108226004808035906020019091905050611dc7565b604051808215151515815260200191505060405180910390f35b341561084757600080fd5b61084f611e8d565b6040518082815260200191505060405180910390f35b341561087057600080fd5b61089c600480803573ffffffffffffffffffffffffffffffffffffffff16906020019091905050611e93565b604051808260028111156108ac57fe5b60ff16815260200191505060405180910390f35b34156108cb57600080fd5b6108d3611eb3565b6040518082815260200191505060405180910390f35b34156108f457600080fd5b6108fc611ebf565b6040518082815260200191505060405180910390f35b341561091d57600080fd5b610925611ecc565b6040518082815260200191505060405180910390f35b341561094657600080fd5b61094e611ed4565b6040518082815260200191505060405180910390f35b341561096f57600080fd5b610977611edb565b6040518082815260200191505060405180910390f35b341561099857600080fd5b6109a0611ee1565b6040518082815260200191505060405180910390f35b34156109c157600080fd5b6109d76004808035906020019091905050611ee7565b604051808215151515815260200191505060405180910390f35b34156109fc57600080fd5b610a04612028565b6040518082815260200191505060405180910390f35b3415610a2557600080fd5b610a2d612030565b6040518082815260200191505060405180910390f35b610a84600480803573ffffffffffffffffffffffffffffffffffffffff1690602001909190803590602001909190803560ff16906020019091905050612038565b604051808215151515815260200191505060405180910390f35b3415610aa957600080fd5b610ab161240d565b6040518082815260200191505060405180910390f35b3415610ad257600080fd5b610ae86004808035906020019091905050612413565b604051808215151515815260200191505060405180910390f35b3415610b0d57600080fd5b610b39600480803573ffffffffffffffffffffffffffffffffffffffff16906020019091905050612480565b005b3415610b4657600080fd5b610b4e6125d5565b6040518082815260200191505060405180910390f35b3415610b6f57600080fd5b610b776125db565b604051808273ffffffffffffffffffffffffffffffffffffffff1673ffffffffffffffffffffffffffffffffffffffff16815260200191505060405180910390f35b610bf1600480803573ffffffffffffffffffffffffffffffffffffffff1690602001909190803560ff16906020019091905050612601565b604051808215151515815260200191505060405180910390f35b600080600080600080600080600080610c22612030565b905080600554101515610c3457600080fd5b60065481101515610c4457600080fd5b339850349750610c5389612814565b1515610c5e57600080fd5b600b548810151515610c6f57600080fd5b600c548811151515610c8057600080fd5b600854600a54101515610c9257600080fd5b610cae600860ff16600a0a6007546128e190919063ffffffff16565b9650610cd96012600a0a610ccb898b6128e190919063ffffffff16565b61291490919063ffffffff16565b955060009450859350610cf9600a5460085461292f90919063ffffffff16565b925085831015610d4757829350610d2f87610d216012600a0a876128e190919063ffffffff16565b61291490919063ffffffff16565b9750610d44883461292f90919063ffffffff16565b94505b610d5c84600a5461294890919063ffffffff16565b600a81905550610d776007548561291490919063ffffffff16565b9150610d8e8260095461294890919063ffffffff16565b600981905550600460009054906101000a900473ffffffffffffffffffffffffffffffffffffffff1673ffffffffffffffffffffffffffffffffffffffff16639dcd662c8a86600080604051602001526040518463ffffffff167c0100000000000000000000000000000000000000000000000000000000028152600401808473ffffffffffffffffffffffffffffffffffffffff1673ffffffffffffffffffffffffffffffffffffffff1681526020018381526020018260ff1681526020019350505050602060405180830381600087803b1515610e6c57600080fd5b6102c65a03f11515610e7d57600080fd5b505050604051805190501515610e9257600080fd5b600360009054906101000a900473ffffffffffffffffffffffffffffffffffffffff1673ffffffffffffffffffffffffffffffffffffffff1663a9059cbb600460009054906101000a900473ffffffffffffffffffffffffffffffffffffffff16866000604051602001526040518363ffffffff167c0100000000000000000000000000000000000000000000000000000000028152600401808373ffffffffffffffffffffffffffffffffffffffff1673ffffffffffffffffffffffffffffffffffffffff16815260200182815260200192505050602060405180830381600087803b1515610f8157600080fd5b6102c65a03f11515610f9257600080fd5b505050604051805190501515610fa757600080fd5b6000851115610ff1578873ffffffffffffffffffffffffffffffffffffffff166108fc869081150290604051600060405180830381858888f193505050501515610ff057600080fd5b5b600d60009054906101000a900473ffffffffffffffffffffffffffffffffffffffff1673ffffffffffffffffffffffffffffffffffffffff166108fc899081150290604051600060405180830381858888f19350505050151561105357600080fd5b7f8f28852646c20cc973d3a8218f7eefed58c25c909f78f0265af4818c3d4dc2718985604051808373ffffffffffffffffffffffffffffffffffffffff1673ffffffffffffffffffffffffffffffffffffffff1681526020018281526020019250505060405180910390a1600854600a5414156110d4576110d2612966565b505b6001995050505050505050505090565b600460009054906101000a900473ffffffffffffffffffffffffffffffffffffffff1681565b6000806000339050600073ffffffffffffffffffffffffffffffffffffffff168173ffffffffffffffffffffffffffffffffffffffff161415151561114e57600080fd5b600260009054906101000a900473ffffffffffffffffffffffffffffffffffffffff1673ffffffffffffffffffffffffffffffffffffffff168173ffffffffffffffffffffffffffffffffffffffff161415156111aa57600080fd5b600c54915083600c819055507f97e165b35cdd33d0612173780f6b087e9d1bf014f1c2569b91e5463f043714dc3383600c54604051808473ffffffffffffffffffffffffffffffffffffffff1673ffffffffffffffffffffffffffffffffffffffff168152602001838152602001828152602001935050505060405180910390a1600192505050919050565b6000806000339050600073ffffffffffffffffffffffffffffffffffffffff168173ffffffffffffffffffffffffffffffffffffffff161415151561127a57600080fd5b600260009054906101000a900473ffffffffffffffffffffffffffffffffffffffff1673ffffffffffffffffffffffffffffffffffffffff168173ffffffffffffffffffffffffffffffffffffffff161415156112d657600080fd5b6008549150836008819055507fae201880b6d8b8551fa9233eecc9940900ae171044ee37737d480b4e3fe44f493383600854604051808473ffffffffffffffffffffffffffffffffffffffff1673ffffffffffffffffffffffffffffffffffffffff168152602001838152602001828152602001935050505060405180910390a1600192505050919050565b611379600a62061a8061291490919063ffffffff16565b81565b60008060009054906101000a900473ffffffffffffffffffffffffffffffffffffffff1673ffffffffffffffffffffffffffffffffffffffff163373ffffffffffffffffffffffffffffffffffffffff161415156113d957600080fd5b81600260006101000a81548173ffffffffffffffffffffffffffffffffffffffff021916908373ffffffffffffffffffffffffffffffffffffffff16021790555060019050919050565b60095481565b600b5481565b6000806000339050600073ffffffffffffffffffffffffffffffffffffffff168173ffffffffffffffffffffffffffffffffffffffff161415151561147357600080fd5b600260009054906101000a900473ffffffffffffffffffffffffffffffffffffffff1673ffffffffffffffffffffffffffffffffffffffff168173ffffffffffffffffffffffffffffffffffffffff161415156114cf57600080fd5b600b54915083600b819055507f21c9aa51794e3f9069f3de59b27bb45fbff651793d53a4488f1b67f6695440863383600b54604051808473ffffffffffffffffffffffffffffffffffffffff1673ffffffffffffffffffffffffffffffffffffffff168152602001838152602001828152602001935050505060405180910390a1600192505050919050565b600860ff16600a0a81565b600080339050600073ffffffffffffffffffffffffffffffffffffffff168173ffffffffffffffffffffffffffffffffffffffff16141515156115a857600080fd5b600260009054906101000a900473ffffffffffffffffffffffffffffffffffffffff1673ffffffffffffffffffffffffffffffffffffffff168173ffffffffffffffffffffffffffffffffffffffff1614151561160457600080fd5b61160c612966565b91505090565b6000806000339050600073ffffffffffffffffffffffffffffffffffffffff168173ffffffffffffffffffffffffffffffffffffffff161415151561165657600080fd5b600260009054906101000a900473ffffffffffffffffffffffffffffffffffffffff1673ffffffffffffffffffffffffffffffffffffffff168173ffffffffffffffffffffffffffffffffffffffff161415156116b257600080fd5b600073ffffffffffffffffffffffffffffffffffffffff168573ffffffffffffffffffffffffffffffffffffffff16141515156116ee57600080fd5b600160028111156116fb57fe5b84600281111561170757fe5b1480611728575060028081111561171a57fe5b84600281111561172657fe5b145b8061174957506000600281111561173b57fe5b84600281111561174757fe5b145b151561175457600080fd5b61175c611993565b15151561176857600080fd5b83600e60008773ffffffffffffffffffffffffffffffffffffffff1673ffffffffffffffffffffffffffffffffffffffff16815260200190815260200160002060006101000a81548160ff021916908360028111156117c357fe5b02179055503391507f3f3816908a5fa8ed32f84d4db7048658b4bd1fa807f45a93ce4ba9ad599cd34b828686604051808473ffffffffffffffffffffffffffffffffffffffff1673ffffffffffffffffffffffffffffffffffffffff1681526020018373ffffffffffffffffffffffffffffffffffffffff1673ffffffffffffffffffffffffffffffffffffffff16815260200182600281111561186357fe5b60ff168152602001935050505060405180910390a160019250505092915050565b600d60009054906101000a900473ffffffffffffffffffffffffffffffffffffffff1681565b600360009054906101000a900473ffffffffffffffffffffffffffffffffffffffff1681565b600881565b600860ff16600a0a631ad274800281565b600a5481565b60008060009054906101000a900473ffffffffffffffffffffffffffffffffffffffff1673ffffffffffffffffffffffffffffffffffffffff163373ffffffffffffffffffffffffffffffffffffffff1614151561194957600080fd5b81600160006101000a81548173ffffffffffffffffffffffffffffffffffffffff021916908373ffffffffffffffffffffffffffffffffffffffff16021790555060019050919050565b6000600d60149054906101000a900460ff16156119b357600190506119e8565b6119bb612030565b60065410156119cd57600190506119e8565b600a546008541115156119e357600190506119e8565b600090505b90565b635aa07d0081565b6000806000339050600073ffffffffffffffffffffffffffffffffffffffff168173ffffffffffffffffffffffffffffffffffffffff1614151515611a3757600080fd5b600260009054906101000a900473ffffffffffffffffffffffffffffffffffffffff1673ffffffffffffffffffffffffffffffffffffffff168173ffffffffffffffffffffffffffffffffffffffff16141515611a9357600080fd5b60055484111515611aa357600080fd5b6006549150836006819055507f0e0a217b45fa8e6dc38c0fda88bbbb9b96178275cacb888c6808412f591107dc3383600654604051808473ffffffffffffffffffffffffffffffffffffffff1673ffffffffffffffffffffffffffffffffffffffff168152602001838152602001828152602001935050505060405180910390a1600192505050919050565b6000806000339050600073ffffffffffffffffffffffffffffffffffffffff168173ffffffffffffffffffffffffffffffffffffffff1614151515611b7357600080fd5b600260009054906101000a900473ffffffffffffffffffffffffffffffffffffffff1673ffffffffffffffffffffffffffffffffffffffff168173ffffffffffffffffffffffffffffffffffffffff16141515611bcf57600080fd5b600073ffffffffffffffffffffffffffffffffffffffff168473ffffffffffffffffffffffffffffffffffffffff1614151515611c0b57600080fd5b600d60009054906101000a900473ffffffffffffffffffffffffffffffffffffffff16915083600d60006101000a81548173ffffffffffffffffffffffffffffffffffffffff021916908373ffffffffffffffffffffffffffffffffffffffff1602179055507fa51743acc566a17de801f1b15ea2b3b0ef044d425ccb02be8d95d44455436d203383600d60009054906101000a900473ffffffffffffffffffffffffffffffffffffffff16604051808473ffffffffffffffffffffffffffffffffffffffff1673ffffffffffffffffffffffffffffffffffffffff1681526020018373ffffffffffffffffffffffffffffffffffffffff1673ffffffffffffffffffffffffffffffffffffffff1681526020018273ffffffffffffffffffffffffffffffffffffffff1673ffffffffffffffffffffffffffffffffffffffff168152602001935050505060405180910390a1600192505050919050565b600d60149054906101000a900460ff1681565b6000809054906101000a900473ffffffffffffffffffffffffffffffffffffffff1681565b600160009054906101000a900473ffffffffffffffffffffffffffffffffffffffff1681565b600080339050600073ffffffffffffffffffffffffffffffffffffffff168173ffffffffffffffffffffffffffffffffffffffff1614151515611e0957600080fd5b600260009054906101000a900473ffffffffffffffffffffffffffffffffffffffff1673ffffffffffffffffffffffffffffffffffffffff168173ffffffffffffffffffffffffffffffffffffffff16141515611e6557600080fd5b600554611e70612030565b101515611e7c57600080fd5b611e8583612b7a565b915050919050565b600c5481565b600e6020528060005260406000206000915054906101000a900460ff1681565b67016345785d8a000081565b68056bc75e2d6310000081565b635b38198081565b62061a8081565b60065481565b60085481565b6000806000339050600073ffffffffffffffffffffffffffffffffffffffff168173ffffffffffffffffffffffffffffffffffffffff1614151515611f2b57600080fd5b600260009054906101000a900473ffffffffffffffffffffffffffffffffffffffff1673ffffffffffffffffffffffffffffffffffffffff168173ffffffffffffffffffffffffffffffffffffffff16141515611f8757600080fd5b611f8f612030565b84111515611f9c57600080fd5b6005549150836005819055507f2862939a113df50e6874fd0ebe19f330e3a50d2de096a9ac037b427bd17d3a433383600554604051808473ffffffffffffffffffffffffffffffffffffffff1673ffffffffffffffffffffffffffffffffffffffff168152602001838152602001828152602001935050505060405180910390a1600192505050919050565b6012600a0a81565b600042905090565b600080600080339050600073ffffffffffffffffffffffffffffffffffffffff168173ffffffffffffffffffffffffffffffffffffffff161415151561207d57600080fd5b600260009054906101000a900473ffffffffffffffffffffffffffffffffffffffff1673ffffffffffffffffffffffffffffffffffffffff168173ffffffffffffffffffffffffffffffffffffffff161415156120d957600080fd5b6005546120e4612030565b1015156120f057600080fd5b6000861115156120ff57600080fd5b612119600860ff16600a0a876128e190919063ffffffff16565b9250612132600a5460085461292f90919063ffffffff16565b915081831115151561214357600080fd5b600460009054906101000a900473ffffffffffffffffffffffffffffffffffffffff1673ffffffffffffffffffffffffffffffffffffffff16639dcd662c8885886000604051602001526040518463ffffffff167c0100000000000000000000000000000000000000000000000000000000028152600401808473ffffffffffffffffffffffffffffffffffffffff1673ffffffffffffffffffffffffffffffffffffffff1681526020018381526020018260ff1660ff1681526020019350505050602060405180830381600087803b151561221e57600080fd5b6102c65a03f1151561222f57600080fd5b50505060405180519050151561224457600080fd5b600360009054906101000a900473ffffffffffffffffffffffffffffffffffffffff1673ffffffffffffffffffffffffffffffffffffffff1663a9059cbb600460009054906101000a900473ffffffffffffffffffffffffffffffffffffffff16856000604051602001526040518363ffffffff167c0100000000000000000000000000000000000000000000000000000000028152600401808373ffffffffffffffffffffffffffffffffffffffff1673ffffffffffffffffffffffffffffffffffffffff16815260200182815260200192505050602060405180830381600087803b151561233357600080fd5b6102c65a03f1151561234457600080fd5b50505060405180519050151561235957600080fd5b61236e83600a5461294890919063ffffffff16565b600a81905550600854600a54141561238a57612388612966565b505b7ffdec941f50161ee3bd56739e1e7b2747b09b0e0936ea55d83e3e6f7b9a2a1fa5878487604051808473ffffffffffffffffffffffffffffffffffffffff1673ffffffffffffffffffffffffffffffffffffffff1681526020018381526020018260ff1660ff168152602001935050505060405180910390a15050509392505050565b60055481565b60008060009054906101000a900473ffffffffffffffffffffffffffffffffffffffff1673ffffffffffffffffffffffffffffffffffffffff163373ffffffffffffffffffffffffffffffffffffffff1614151561247057600080fd5b61247982612b7a565b9050919050565b6000809054906101000a900473ffffffffffffffffffffffffffffffffffffffff1673ffffffffffffffffffffffffffffffffffffffff163373ffffffffffffffffffffffffffffffffffffffff161415156124db57600080fd5b600073ffffffffffffffffffffffffffffffffffffffff168173ffffffffffffffffffffffffffffffffffffffff161415151561251757600080fd5b8073ffffffffffffffffffffffffffffffffffffffff166000809054906101000a900473ffffffffffffffffffffffffffffffffffffffff1673ffffffffffffffffffffffffffffffffffffffff167f8be0079c531659141344cd1fd0a4f28419497f9722a3daafe3b4186f6b6457e060405160405180910390a3806000806101000a81548173ffffffffffffffffffffffffffffffffffffffff021916908373ffffffffffffffffffffffffffffffffffffffff16021790555050565b60075481565b600260009054906101000a900473ffffffffffffffffffffffffffffffffffffffff1681565b6000806000339050600073ffffffffffffffffffffffffffffffffffffffff168173ffffffffffffffffffffffffffffffffffffffff161415151561264557600080fd5b600260009054906101000a900473ffffffffffffffffffffffffffffffffffffffff1673ffffffffffffffffffffffffffffffffffffffff168173ffffffffffffffffffffffffffffffffffffffff161415156126a157600080fd5b600073ffffffffffffffffffffffffffffffffffffffff168573ffffffffffffffffffffffffffffffffffffffff16141515156126dd57600080fd5b600460009054906101000a900473ffffffffffffffffffffffffffffffffffffffff1673ffffffffffffffffffffffffffffffffffffffff1663797f202e86866000604051602001526040518363ffffffff167c0100000000000000000000000000000000000000000000000000000000028152600401808373ffffffffffffffffffffffffffffffffffffffff1673ffffffffffffffffffffffffffffffffffffffff1681526020018260ff1660ff16815260200192505050602060405180830381600087803b15156127b057600080fd5b6102c65a03f115156127c157600080fd5b5050506040518051905091506000821115156127dc57600080fd5b600a5482111515156127ed57600080fd5b61280282600a5461292f90919063ffffffff16565b600a8190555060019250505092915050565b600080600e60008473ffffffffffffffffffffffffffffffffffffffff1673ffffffffffffffffffffffffffffffffffffffff16815260200190815260200160002060009054906101000a900460ff1690506000600281111561287357fe5b81600281111561287f57fe5b141561288e57600091506128db565b6001600281111561289b57fe5b8160028111156128a757fe5b14806128c857506002808111156128ba57fe5b8160028111156128c657fe5b145b156128d657600191506128db565b600091505b50919050565b6000808284029050600084148061290257508284828115156128ff57fe5b04145b151561290a57fe5b8091505092915050565b600080828481151561292257fe5b0490508091505092915050565b600082821115151561293d57fe5b818303905092915050565b600080828401905083811015151561295c57fe5b8091505092915050565b600080600d60149054906101000a900460ff1615151561298557600080fd5b6001600d60146101000a81548160ff021916908315150217905550600854600a54141515612b00576129c4600a5460085461292f90919063ffffffff16565b9050600360009054906101000a900473ffffffffffffffffffffffffffffffffffffffff1673ffffffffffffffffffffffffffffffffffffffff166342966c68826040518263ffffffff167c010000000000000000000000000000000000000000000000000000000002815260040180828152602001915050600060405180830381600087803b1515612a5657600080fd5b6102c65a03f11515612a6757600080fd5b505050612a7f8160085461292f90919063ffffffff16565b6008819055507f23ff0e75edf108e3d0392d92e13e8c8a868ef19001bd49f9e94876dc46dff87f3382612ab0612030565b604051808473ffffffffffffffffffffffffffffffffffffffff1673ffffffffffffffffffffffffffffffffffffffff168152602001838152602001828152602001935050505060405180910390a15b7f66b6851664a82efe6b871e434faba2b11421d2dad65eb71a344ae76cca8a2b8633612b2a612030565b604051808373ffffffffffffffffffffffffffffffffffffffff1673ffffffffffffffffffffffffffffffffffffffff1681526020018281526020019250505060405180910390a1600191505090565b600080600083111515612b8c57600080fd5b6007549050826007819055507fe8f5c522733efafaa9c4f460ea05ee7b1605a75153e07df85282591614d9f7393382600754604051808473ffffffffffffffffffffffffffffffffffffffff1673ffffffffffffffffffffffffffffffffffffffff168152602001838152602001828152602001935050505060405180910390a160019150509190505600a165627a7a723058208c87214e982e511223546a9795abc7f7b09a4b4dd0d5436f2edc967c839eddab0029",
  "source": "pragma solidity ^0.4.17;\n\nimport './J8TToken.sol';\nimport './ACLManaged.sol';\nimport './CrowdsaleConfig.sol';\nimport './Ledger.sol';\n\ncontract Crowdsale is ACLManaged, CrowdsaleConfig {\n\n    using SafeMath for uint256;\n\n    //////////////////////////\n    // Crowdsale PROPERTIES //\n    //////////////////////////\n\n    // The J8TToken smart contract reference\n    J8TToken public tokenContract;\n\n    // The Ledger smart contract reference\n    Ledger public ledgerContract;\n\n    // The start token sale date represented as a timestamp\n    uint256 public startTimestamp;\n\n    // The end token sale date represented as a timestamp\n    uint256 public endTimestamp;\n\n    // Ratio of J8T tokens to per ether\n    uint256 public tokensPerEther;\n\n    // The total amount of tokens to be sold\n    uint256 public saleSupply;\n\n    // The total amount of wei raised in the token sale\n    // Including presales (in eth) and public sale\n    uint256 public weiRaised;\n\n    // The current total amount of tokens sold in the token sale\n    uint256 public totalTokensSold;\n\n    // The minimum and maximum eth contribution accepted in the token sale\n    uint256 public MIN_CONTRIBUTION;\n    uint256 public MAX_CONTRIBUTION;\n\n    // The wallet address where the token sale sends all eth contributions\n    address public wallet;\n\n    // Controls whether the token sale has finished or not\n    bool public isFinalized = false;\n\n    // Map of adresses that requested to purchase tokens\n    // Contributors of the token sale are segmented as:\n    //  CannotContribute: Cannot contribute in any phase (uint8  - 0)\n    //  PreSaleContributor: Can contribute on both pre-sale and pubic sale phases (uint8  - 1)\n    //  PublicSaleContributor: Can contribute on he public sale phase (uint8  - 2)\n    mapping(address => WhitelistPermission) public whitelist;\n\n    enum WhitelistPermission {\n        CannotContribute, PreSaleContributor, PublicSaleContributor \n    }\n\n    //////////////////////\n    // Crowdsale EVENTS //\n    //////////////////////\n\n    // Triggered when a contribution in the public sale has been processed correctly\n    event TokensPurchased(address _contributor, uint256 _amount);\n\n    // Triggered when the whitelist has been updated\n    event WhiteListUpdated(address _who, address _account, WhitelistPermission _phase);\n\n    // Triggered when the Crowdsale has been created\n    event ContractCreated();\n\n    // Triggered when a presale has been added\n    // The phase parameter can be a strategic partner contribution or a presale contribution\n    event PresaleAdded(address _contributor, uint256 _amount, uint8 _phase);\n\n    // Triggered when the tokensPerEther property has been updated\n    event TokensPerEtherUpdated(address _who, uint256 _oldValue, uint256 _newValue);\n\n    // Triggered when the startTimestamp property has been updated\n    event StartTimestampUpdated(address _who, uint256 _oldValue, uint256 _newValue);\n\n    // Triggered when the endTimestamp property has been updated\n    event EndTimestampUpdated(address _who, uint256 _oldValue, uint256 _newValue);\n\n    // Triggered when the wallet property has been updated\n    event WalletUpdated(address _who, address _oldWallet, address _newWallet);\n\n    // Triggered when the saleSupply property has been updated\n    event SaleSupplyUpdated(address _who, uint256 _oldValue, uint256 _newValue);\n\n    // Triggered when the MIN_CONTRIBUTION property has been updated\n    event MinContributionUpdated(address _who, uint256 _oldValue, uint256 _newValue);\n\n    // Triggered when the MAX_CONTRIBUTION property has been updated\n    event MaxContributionUpdated(address _who, uint256 _oldValue, uint256 _newValue);\n\n    // Triggered when the token sale has finalized\n    event Finalized(address _who, uint256 _timestamp);\n\n    // Triggered when the token sale has finalized and there where still token to sale\n    // When the token are not sold, we burn them\n    event Burned(address _who, uint256 _amount, uint256 _timestamp);\n\n    /////////////////////////\n    // Crowdsale FUNCTIONS //\n    /////////////////////////\n    \n\n    // Crowdsale constructor\n    // Takes default values from the CrowdsaleConfig smart contract\n    function Crowdsale(\n        J8TToken _tokenContract,\n        Ledger _ledgerContract,\n        address _wallet\n    ) public\n    {\n        uint256 _start            = START_TIMESTAMP;\n        uint256 _end              = END_TIMESTAMP;\n        uint256 _supply           = TOKEN_SALE_SUPPLY;\n        uint256 _min_contribution = MIN_CONTRIBUTION_WEIS;\n        uint256 _max_contribution = MAX_CONTRIBUTION_WEIS;\n        uint256 _tokensPerEther   = INITIAL_TOKENS_PER_ETHER;\n\n        require(_start > currentTime());\n        require(_end > _start);\n        require(_tokensPerEther > 0);\n        require(address(_tokenContract) != address(0));\n        require(address(_ledgerContract) != address(0));\n        require(_wallet != address(0));\n\n        ledgerContract   = _ledgerContract;\n        tokenContract    = _tokenContract;\n        startTimestamp   = _start;\n        endTimestamp     = _end;\n        tokensPerEther   = _tokensPerEther;\n        saleSupply       = _supply;\n        MIN_CONTRIBUTION = _min_contribution;\n        MAX_CONTRIBUTION = _max_contribution;\n        wallet           = _wallet;\n        totalTokensSold  = 0;\n        weiRaised        = 0;\n        isFinalized      = false;  \n\n        ContractCreated();\n    }\n\n    // Updates the tokenPerEther propety with the new _tokensPerEther value\n    function setTokensPerEther(uint256 _tokensPerEther) external onlyAdmin onlyBeforeSale returns (bool) {\n        return updateTokensPerEther(_tokensPerEther);\n    }\n\n    // Used for internal testing\n    function forceTokensPerEther(uint256 _tokensPerEther) external onlyOwner returns (bool) {\n        return updateTokensPerEther(_tokensPerEther);\n    }\n\n    // Updates the startTimestamp propety with the new _start value\n    function setStartTimestamp(uint256 _start) external onlyAdmin returns (bool) {\n        require(_start > currentTime());\n\n        uint256 _oldValue = startTimestamp;\n        startTimestamp = _start;\n\n        StartTimestampUpdated(msg.sender, _oldValue, startTimestamp);\n\n        return true;\n    }\n\n    // Updates the endTimestamp propety with the new _end value\n    function setEndTimestamp(uint256 _end) external onlyAdmin returns (bool) {\n        require(_end > startTimestamp);\n\n        uint256 _oldValue = endTimestamp;\n        endTimestamp = _end;\n\n        EndTimestampUpdated(msg.sender, _oldValue, endTimestamp);\n        \n        return true;\n    }\n\n    // Updates the wallet propety with the new _newWallet value\n    function updateWallet(address _newWallet) external onlyAdmin returns (bool) {\n        require(_newWallet != address(0));\n        \n        address _oldValue = wallet;\n        wallet = _newWallet;\n        \n        WalletUpdated(msg.sender, _oldValue, wallet);\n        \n        return true;\n    }\n\n    // Updates the saleSupply propety with the new _newSaleSupply value\n    function setSaleSupply(uint256 _newSaleSupply) external onlyAdmin returns (bool) {\n        uint256 _oldValue = saleSupply;\n        saleSupply = _newSaleSupply;\n       \n        SaleSupplyUpdated(msg.sender, _oldValue, saleSupply);\n        \n        return true;\n    }\n\n    // Updates the MIN_CONTRIBUTION propety with the new _newMinControbution value\n    function setMinContribution(uint256 _newMinContribution) external onlyAdmin returns (bool) {\n        uint256 _oldValue = MIN_CONTRIBUTION;\n        MIN_CONTRIBUTION = _newMinContribution;\n        \n        MinContributionUpdated(msg.sender, _oldValue, MIN_CONTRIBUTION);\n        \n        return true;\n    }\n\n    // Updates the MAX_CONTRIBUTION propety with the new _newMaxContribution value\n    function setMaxContribution(uint256 _newMaxContribution) external onlyAdmin returns (bool) {\n        uint256 _oldValue = MAX_CONTRIBUTION;\n        MAX_CONTRIBUTION = _newMaxContribution;\n        \n        MaxContributionUpdated(msg.sender, _oldValue, MAX_CONTRIBUTION);\n        \n        return true;\n    }\n\n    // Main public function.\n    function () external payable {\n        purchaseTokens();\n    }\n\n    // Revokes a presale allocation from the contributor with address _contributor\n    // Updates the totalTokensSold property substracting the amount of tokens that where previously allocated\n    function revokePresale(address _contributor, uint8 _contributorPhase) external payable onlyAdmin returns (bool) {\n        require(_contributor != address(0));\n\n        uint256 luckys = ledgerContract.revokeAllocation(_contributor, _contributorPhase);\n        \n        require(luckys > 0);\n        require(luckys <= totalTokensSold);\n        \n        totalTokensSold = totalTokensSold.sub(luckys);\n        \n        return true;\n    }\n\n    // Adds a new presale allocation for the contributor with address _contributor\n    // We can only allocate presale before the token sale has been initialized\n    function addPresale(address _contributor, uint256 _tokens, uint8 _contributorPhase) external payable onlyAdmin onlyBeforeSale returns (bool) {\n        require(_tokens > 0);\n\n        // Converts the amount of tokens to our smallest J8T value, lucky\n        uint256 luckys = _tokens.mul(J8T_DECIMALS_FACTOR);\n        uint256 availableTokensToPurchase = saleSupply.sub(totalTokensSold);\n        require(luckys <= availableTokensToPurchase);\n\n        // Insert the new allocation to the Ledger\n        require(ledgerContract.addAllocation(_contributor, luckys, _contributorPhase));\n        // Transfers the tokens form the Crowdsale contract to the Ledger contract\n        require(tokenContract.transfer(address(ledgerContract), luckys));\n\n        // Updates totalTokensSold property\n        totalTokensSold = totalTokensSold.add(luckys);\n\n        // If we reach the total amount of tokens to sell we finilize the token sale\n        if (totalTokensSold == saleSupply) {\n            finalization();\n        }\n\n        // Trigger PresaleAdded event\n        PresaleAdded(_contributor, luckys, _contributorPhase);\n    }\n\n    // The purchaseTokens function handles the token purchase flow\n    function purchaseTokens() public payable onlyDuringSale returns (bool) {\n        address contributor  = msg.sender;\n        uint256 weiAmount    = msg.value;\n\n        // The contributor address must be whitelisted in order to be able to purchase tokens\n        require(contributorCanContribute(contributor));\n        // The weiAmount must be greater or equal than MIN_CONTRIBUTION\n        require(weiAmount >= MIN_CONTRIBUTION);\n        // The weiAmount cannot be greater than MAX_CONTRIBUTION\n        require(weiAmount <= MAX_CONTRIBUTION);\n        // The saleSupply must be greater than totalTokensSold\n        require(totalTokensSold < saleSupply);\n\n        // We need to convert the tokensPerEther to luckys (10**8)\n        uint256 luckyPerEther = tokensPerEther.mul(J8T_DECIMALS_FACTOR);\n\n        // In order to calculate the tokens amoun to be allocated to the contrbutor\n        // we need to multiply the amount of wei sent by luckyPerEther and divide the\n        // result for the ether decimal factor (10**18)\n        uint256 tokensAmount = weiAmount.mul(luckyPerEther).div(ETH_DECIMALS_FACTOR);\n        \n\n        uint256 refund = 0;\n        uint256 tokensToPurchase = tokensAmount;\n        uint256 availableTokensToPurchase = saleSupply.sub(totalTokensSold);\n        \n        // If the token purchase amount is bigger than the remaining token allocation\n        // we can only sell the remainging tokens and refund the unused amount of eth\n        if (availableTokensToPurchase < tokensAmount) {\n            tokensToPurchase = availableTokensToPurchase;\n            weiAmount = tokensToPurchase.mul(ETH_DECIMALS_FACTOR).div(luckyPerEther);\n            refund = msg.value.sub(weiAmount);\n        }\n\n        // We update the token sale contract data\n        totalTokensSold = totalTokensSold.add(tokensToPurchase);\n        uint256 weiToPurchase = tokensToPurchase.div(tokensPerEther);\n        weiRaised = weiRaised.add(weiToPurchase);\n\n        // Insert the new allocation to the Ledger\n        // we set the contribution phase as public (uint8 0)\n        require(ledgerContract.addAllocation(contributor, tokensToPurchase, 0));\n        // Transfers the tokens form the Crowdsale contract to the Ledger contract\n        require(tokenContract.transfer(address(ledgerContract), tokensToPurchase));\n\n        // Issue a refund for any unused ether \n        if (refund > 0) {\n            contributor.transfer(refund);\n        }\n\n        // Transfer ether contribution to the wallet\n        wallet.transfer(weiAmount);\n\n        TokensPurchased(contributor, tokensToPurchase);\n\n        // If we reach the total amount of tokens to sell we finilize the token sale\n        if (totalTokensSold == saleSupply) {\n            finalization();\n        }\n\n        return true;\n    }\n\n    // Updates the whitelist\n    function updateWhitelist(address _account, WhitelistPermission _permission) external onlyAdmin returns (bool) {\n        require(_account != address(0));\n        require(_permission == WhitelistPermission.PreSaleContributor || _permission == WhitelistPermission.PublicSaleContributor || _permission == WhitelistPermission.CannotContribute);\n        require(!saleHasFinished());\n\n        whitelist[_account] = _permission;\n\n        address _who = msg.sender;\n        WhiteListUpdated(_who, _account, _permission);\n\n        return true;\n    }\n\n    // Checks that the status of an address account\n    // Contributors of the token sale are segmented as:\n    //  PreSaleContributor: Can contribute on both pre-sale and pubic sale phases\n    //  PublicSaleContributor: Can contribute on he public sale phase\n    //  CannotContribute: Cannot contribute in any phase\n    function contributorCanContribute(address _contributorAddress) private view returns (bool) {\n        WhitelistPermission _contributorPhase = whitelist[_contributorAddress];\n\n        if (_contributorPhase == WhitelistPermission.CannotContribute) {\n            return false;\n        }\n\n        if (_contributorPhase == WhitelistPermission.PreSaleContributor || \n            _contributorPhase == WhitelistPermission.PublicSaleContributor) {\n            return true;\n        }\n\n        return false;\n    }\n\n    // Returns the current time\n    function currentTime() public view returns (uint256) {\n        return now;\n    }\n\n    // Checks if the sale has finished\n    function saleHasFinished() public view returns (bool) {\n        if (isFinalized) {\n            return true;\n        }\n\n        if (endTimestamp < currentTime()) {\n            return true;\n        }\n\n        if (saleSupply <= totalTokensSold) {\n            return true;\n        }\n\n        return false;\n    }\n\n    modifier onlyBeforeSale() {\n        require(currentTime() < startTimestamp);\n        _;\n    }\n\n    modifier onlyDuringSale() {\n        uint256 _currentTime = currentTime();\n        require(startTimestamp < _currentTime);\n        require(_currentTime < endTimestamp);\n        _;\n    }\n\n    modifier onlyPostSale() {\n        require(endTimestamp < currentTime());\n        _;\n    }\n\n    ///////////////////////\n    // PRIVATE FUNCTIONS //\n    ///////////////////////\n\n    function updateTokensPerEther(uint256 _tokensPerEther) private returns (bool) {\n        require(_tokensPerEther > 0);\n\n        uint256 _oldValue = tokensPerEther;\n        tokensPerEther = _tokensPerEther;\n\n        TokensPerEtherUpdated(msg.sender, _oldValue, tokensPerEther);\n        return true;\n    }\n\n    // This method is for to be called only for the owner. This way we protect for anyone who wanna finalize the ICO.\n    function finalize() external onlyAdmin returns (bool) {\n        return finalization();\n    }\n\n    // Only used by finalize and setFinalized.\n    // Overloaded logic for two uses.\n    // NOTE: In case finalize is called by an user and not from addPresale()/purchaseToken()\n    // will diff total supply with sold supply to burn token.\n    function finalization() private returns (bool) {\n        require(!isFinalized);\n\n        isFinalized = true;\n\n        if (totalTokensSold != saleSupply) {\n            uint256 burnable_amount = saleSupply.sub(totalTokensSold);\n            tokenContract.burn(burnable_amount);\n            saleSupply = saleSupply.sub(burnable_amount);\n            Burned(msg.sender, burnable_amount, currentTime());\n        }\n\n        Finalized(msg.sender, currentTime());\n\n        return true;\n    }\n}\n",
  "sourcePath": "/Volumes/Workspace/projects/jumbo-contracts/contracts/Crowdsale.sol",
  "compiler": {
    "name": "solc",
    "version": "0.4.18+commit.9cf6e910.Emscripten.clang"
  },
  "schemaVersion": "1.0.1",
  "updatedAt": "2018-01-20T22:26:14.016Z"
}