{
  "contractName": "CrowdsaleConfig",
  "abi": [
    {
      "constant": true,
      "inputs": [],
      "name": "INITIAL_TOKENS_PER_ETHER",
      "outputs": [
        {
          "name": "",
          "type": "uint256"
        }
      ],
      "payable": false,
      "stateMutability": "view",
      "type": "function"
    },
    {
      "constant": true,
      "inputs": [],
      "name": "J8T_DECIMALS_FACTOR",
      "outputs": [
        {
          "name": "",
          "type": "uint256"
        }
      ],
      "payable": false,
      "stateMutability": "view",
      "type": "function"
    },
    {
      "constant": true,
      "inputs": [],
      "name": "TOKEN_DECIMALS",
      "outputs": [
        {
          "name": "",
          "type": "uint8"
        }
      ],
      "payable": false,
      "stateMutability": "view",
      "type": "function"
    },
    {
      "constant": true,
      "inputs": [],
      "name": "TOKEN_SALE_SUPPLY",
      "outputs": [
        {
          "name": "",
          "type": "uint256"
        }
      ],
      "payable": false,
      "stateMutability": "view",
      "type": "function"
    },
    {
      "constant": true,
      "inputs": [],
      "name": "START_TIMESTAMP",
      "outputs": [
        {
          "name": "",
          "type": "uint256"
        }
      ],
      "payable": false,
      "stateMutability": "view",
      "type": "function"
    },
    {
      "constant": true,
      "inputs": [],
      "name": "MIN_CONTRIBUTION_WEIS",
      "outputs": [
        {
          "name": "",
          "type": "uint256"
        }
      ],
      "payable": false,
      "stateMutability": "view",
      "type": "function"
    },
    {
      "constant": true,
      "inputs": [],
      "name": "MAX_CONTRIBUTION_WEIS",
      "outputs": [
        {
          "name": "",
          "type": "uint256"
        }
      ],
      "payable": false,
      "stateMutability": "view",
      "type": "function"
    },
    {
      "constant": true,
      "inputs": [],
      "name": "END_TIMESTAMP",
      "outputs": [
        {
          "name": "",
          "type": "uint256"
        }
      ],
      "payable": false,
      "stateMutability": "view",
      "type": "function"
    },
    {
      "constant": true,
      "inputs": [],
      "name": "dollars_per_kilo_ether",
      "outputs": [
        {
          "name": "",
          "type": "uint256"
        }
      ],
      "payable": false,
      "stateMutability": "view",
      "type": "function"
    },
    {
      "constant": true,
      "inputs": [],
      "name": "ETH_DECIMALS_FACTOR",
      "outputs": [
        {
          "name": "",
          "type": "uint256"
        }
      ],
      "payable": false,
      "stateMutability": "view",
      "type": "function"
    }
  ],
  "bytecode": "0x6060604052341561000f57600080fd5b6103038061001e6000396000f3006060604052600436106100a4576000357c0100000000000000000000000000000000000000000000000000000000900463ffffffff1680631a8fc985146100a9578063498b7718146100d25780635b7f415c146100fb5780635d0cb15d1461012a578063781cd99d146101535780639d7233d41461017c5780639f132677146101a5578063a07c765f146101ce578063a5f75a5e146101f7578063ce809e4e14610220575b600080fd5b34156100b457600080fd5b6100bc610249565b6040518082815260200191505060405180910390f35b34156100dd57600080fd5b6100e5610263565b6040518082815260200191505060405180910390f35b341561010657600080fd5b61010e61026e565b604051808260ff1660ff16815260200191505060405180910390f35b341561013557600080fd5b61013d610273565b6040518082815260200191505060405180910390f35b341561015e57600080fd5b610166610284565b6040518082815260200191505060405180910390f35b341561018757600080fd5b61018f61028c565b6040518082815260200191505060405180910390f35b34156101b057600080fd5b6101b8610298565b6040518082815260200191505060405180910390f35b34156101d957600080fd5b6101e16102a5565b6040518082815260200191505060405180910390f35b341561020257600080fd5b61020a6102ad565b6040518082815260200191505060405180910390f35b341561022b57600080fd5b6102336102b4565b6040518082815260200191505060405180910390f35b610260600a62061a806102bc90919063ffffffff16565b81565b600860ff16600a0a81565b600881565b600860ff16600a0a631ad274800281565b635aa07d0081565b67016345785d8a000081565b68056bc75e2d6310000081565b635b38198081565b62061a8081565b6012600a0a81565b60008082848115156102ca57fe5b04905080915050929150505600a165627a7a723058208c5b33fa77236a5214673acd3f4bee4eae188de10be390fce9d48804058b08da0029",
  "source": "pragma solidity ^0.4.17;\n\nimport 'zeppelin-solidity/contracts/math/SafeMath.sol';\n\ncontract CrowdsaleConfig {\n    using SafeMath for uint256;\n\n    // Default start token sale date is 08th March 2018\n    uint256 public constant START_TIMESTAMP = 1520467200;\n\n    // Default end token sale date is 1st July 2018\n    uint256 public constant END_TIMESTAMP   = 1530403200;\n\n    // The J8T decimals\n    uint8   public constant TOKEN_DECIMALS = 8;\n\n    // The J8T decimal factor to obtain luckys\n    uint256 public constant J8T_DECIMALS_FACTOR = 10**uint256(TOKEN_DECIMALS);\n\n    // The ETH decimal factor to obtain weis\n    uint256 public constant ETH_DECIMALS_FACTOR = 10**uint256(18);\n\n    // The token sale supply \n    uint256 public constant TOKEN_SALE_SUPPLY = 450000000 * J8T_DECIMALS_FACTOR;\n\n    // The minimum contribution amount in weis\n    uint256 public constant MIN_CONTRIBUTION_WEIS = 100000000000000000; //0.1 eth\n\n    // The maximum contribution amount in weis\n    uint256 public constant MAX_CONTRIBUTION_WEIS = 100000000000000000000; //100 eth\n\n    //@WARNING: WORKING WITH KILO-MULTIPLES TO AVOID IMPOSSIBLE DIVISIONS OF FLOATING POINTS.\n    uint256 constant dollar_per_kilo_token = 10; //0.01 dollar per token\n    uint256 public constant dollars_per_kilo_ether = 400000; //400$ per ether\n    //TOKENS_PER_ETHER = dollars_per_ether / dollar_per_token\n    uint256 public constant INITIAL_TOKENS_PER_ETHER = dollars_per_kilo_ether.div(dollar_per_kilo_token);\n}",
  "sourcePath": "/Volumes/Workspace/projects/jumbo-contracts/contracts/CrowdsaleConfig.sol",
  "compiler": {
    "name": "solc",
    "version": "0.4.18+commit.9cf6e910.Emscripten.clang"
  },
  "schemaVersion": "1.0.1",
  "updatedAt": "2018-01-20T22:26:13.876Z"
}