{
  "contractName": "CrowdsaleMock",
  "abi": [
    {
      "constant": true,
      "inputs": [],
      "name": "ledgerContract",
      "outputs": [
        {
          "name": "",
          "type": "address"
        }
      ],
      "payable": false,
      "stateMutability": "view",
      "type": "function"
    },
    {
      "constant": false,
      "inputs": [
        {
          "name": "_newMaxContribution",
          "type": "uint256"
        }
      ],
      "name": "setMaxContribution",
      "outputs": [
        {
          "name": "",
          "type": "bool"
        }
      ],
      "payable": false,
      "stateMutability": "nonpayable",
      "type": "function"
    },
    {
      "constant": false,
      "inputs": [
        {
          "name": "_newSaleSupply",
          "type": "uint256"
        }
      ],
      "name": "setSaleSupply",
      "outputs": [
        {
          "name": "",
          "type": "bool"
        }
      ],
      "payable": false,
      "stateMutability": "nonpayable",
      "type": "function"
    },
    {
      "constant": true,
      "inputs": [],
      "name": "INITIAL_TOKENS_PER_ETHER",
      "outputs": [
        {
          "name": "",
          "type": "uint256"
        }
      ],
      "payable": false,
      "stateMutability": "view",
      "type": "function"
    },
    {
      "constant": false,
      "inputs": [
        {
          "name": "_adminAddress",
          "type": "address"
        }
      ],
      "name": "setAdminAddress",
      "outputs": [
        {
          "name": "",
          "type": "bool"
        }
      ],
      "payable": false,
      "stateMutability": "nonpayable",
      "type": "function"
    },
    {
      "constant": false,
      "inputs": [],
      "name": "purchaseTokens",
      "outputs": [
        {
          "name": "",
          "type": "bool"
        }
      ],
      "payable": true,
      "stateMutability": "payable",
      "type": "function"
    },
    {
      "constant": true,
      "inputs": [],
      "name": "weiRaised",
      "outputs": [
        {
          "name": "",
          "type": "uint256"
        }
      ],
      "payable": false,
      "stateMutability": "view",
      "type": "function"
    },
    {
      "constant": true,
      "inputs": [],
      "name": "MIN_CONTRIBUTION",
      "outputs": [
        {
          "name": "",
          "type": "uint256"
        }
      ],
      "payable": false,
      "stateMutability": "view",
      "type": "function"
    },
    {
      "constant": false,
      "inputs": [
        {
          "name": "_newMinContribution",
          "type": "uint256"
        }
      ],
      "name": "setMinContribution",
      "outputs": [
        {
          "name": "",
          "type": "bool"
        }
      ],
      "payable": false,
      "stateMutability": "nonpayable",
      "type": "function"
    },
    {
      "constant": true,
      "inputs": [],
      "name": "J8T_DECIMALS_FACTOR",
      "outputs": [
        {
          "name": "",
          "type": "uint256"
        }
      ],
      "payable": false,
      "stateMutability": "view",
      "type": "function"
    },
    {
      "constant": false,
      "inputs": [],
      "name": "finalize",
      "outputs": [
        {
          "name": "",
          "type": "bool"
        }
      ],
      "payable": false,
      "stateMutability": "nonpayable",
      "type": "function"
    },
    {
      "constant": false,
      "inputs": [
        {
          "name": "_account",
          "type": "address"
        },
        {
          "name": "_permission",
          "type": "uint8"
        }
      ],
      "name": "updateWhitelist",
      "outputs": [
        {
          "name": "",
          "type": "bool"
        }
      ],
      "payable": false,
      "stateMutability": "nonpayable",
      "type": "function"
    },
    {
      "constant": true,
      "inputs": [],
      "name": "wallet",
      "outputs": [
        {
          "name": "",
          "type": "address"
        }
      ],
      "payable": false,
      "stateMutability": "view",
      "type": "function"
    },
    {
      "constant": true,
      "inputs": [],
      "name": "tokenContract",
      "outputs": [
        {
          "name": "",
          "type": "address"
        }
      ],
      "payable": false,
      "stateMutability": "view",
      "type": "function"
    },
    {
      "constant": true,
      "inputs": [],
      "name": "TOKEN_DECIMALS",
      "outputs": [
        {
          "name": "",
          "type": "uint8"
        }
      ],
      "payable": false,
      "stateMutability": "view",
      "type": "function"
    },
    {
      "constant": true,
      "inputs": [],
      "name": "TOKEN_SALE_SUPPLY",
      "outputs": [
        {
          "name": "",
          "type": "uint256"
        }
      ],
      "payable": false,
      "stateMutability": "view",
      "type": "function"
    },
    {
      "constant": true,
      "inputs": [],
      "name": "totalTokensSold",
      "outputs": [
        {
          "name": "",
          "type": "uint256"
        }
      ],
      "payable": false,
      "stateMutability": "view",
      "type": "function"
    },
    {
      "constant": false,
      "inputs": [
        {
          "name": "_opsAddress",
          "type": "address"
        }
      ],
      "name": "setOpsAddress",
      "outputs": [
        {
          "name": "",
          "type": "bool"
        }
      ],
      "payable": false,
      "stateMutability": "nonpayable",
      "type": "function"
    },
    {
      "constant": true,
      "inputs": [],
      "name": "saleHasFinished",
      "outputs": [
        {
          "name": "",
          "type": "bool"
        }
      ],
      "payable": false,
      "stateMutability": "view",
      "type": "function"
    },
    {
      "constant": true,
      "inputs": [],
      "name": "START_TIMESTAMP",
      "outputs": [
        {
          "name": "",
          "type": "uint256"
        }
      ],
      "payable": false,
      "stateMutability": "view",
      "type": "function"
    },
    {
      "constant": false,
      "inputs": [
        {
          "name": "_newTime",
          "type": "uint256"
        }
      ],
      "name": "changeTime",
      "outputs": [
        {
          "name": "",
          "type": "bool"
        }
      ],
      "payable": false,
      "stateMutability": "nonpayable",
      "type": "function"
    },
    {
      "constant": false,
      "inputs": [
        {
          "name": "_end",
          "type": "uint256"
        }
      ],
      "name": "setEndTimestamp",
      "outputs": [
        {
          "name": "",
          "type": "bool"
        }
      ],
      "payable": false,
      "stateMutability": "nonpayable",
      "type": "function"
    },
    {
      "constant": false,
      "inputs": [
        {
          "name": "_newWallet",
          "type": "address"
        }
      ],
      "name": "updateWallet",
      "outputs": [
        {
          "name": "",
          "type": "bool"
        }
      ],
      "payable": false,
      "stateMutability": "nonpayable",
      "type": "function"
    },
    {
      "constant": true,
      "inputs": [],
      "name": "isFinalized",
      "outputs": [
        {
          "name": "",
          "type": "bool"
        }
      ],
      "payable": false,
      "stateMutability": "view",
      "type": "function"
    },
    {
      "constant": true,
      "inputs": [],
      "name": "owner",
      "outputs": [
        {
          "name": "",
          "type": "address"
        }
      ],
      "payable": false,
      "stateMutability": "view",
      "type": "function"
    },
    {
      "constant": true,
      "inputs": [],
      "name": "opsAddress",
      "outputs": [
        {
          "name": "",
          "type": "address"
        }
      ],
      "payable": false,
      "stateMutability": "view",
      "type": "function"
    },
    {
      "constant": false,
      "inputs": [
        {
          "name": "_tokensPerEther",
          "type": "uint256"
        }
      ],
      "name": "setTokensPerEther",
      "outputs": [
        {
          "name": "",
          "type": "bool"
        }
      ],
      "payable": false,
      "stateMutability": "nonpayable",
      "type": "function"
    },
    {
      "constant": true,
      "inputs": [],
      "name": "MAX_CONTRIBUTION",
      "outputs": [
        {
          "name": "",
          "type": "uint256"
        }
      ],
      "payable": false,
      "stateMutability": "view",
      "type": "function"
    },
    {
      "constant": true,
      "inputs": [
        {
          "name": "",
          "type": "address"
        }
      ],
      "name": "whitelist",
      "outputs": [
        {
          "name": "",
          "type": "uint8"
        }
      ],
      "payable": false,
      "stateMutability": "view",
      "type": "function"
    },
    {
      "constant": true,
      "inputs": [],
      "name": "MIN_CONTRIBUTION_WEIS",
      "outputs": [
        {
          "name": "",
          "type": "uint256"
        }
      ],
      "payable": false,
      "stateMutability": "view",
      "type": "function"
    },
    {
      "constant": true,
      "inputs": [],
      "name": "MAX_CONTRIBUTION_WEIS",
      "outputs": [
        {
          "name": "",
          "type": "uint256"
        }
      ],
      "payable": false,
      "stateMutability": "view",
      "type": "function"
    },
    {
      "constant": true,
      "inputs": [],
      "name": "END_TIMESTAMP",
      "outputs": [
        {
          "name": "",
          "type": "uint256"
        }
      ],
      "payable": false,
      "stateMutability": "view",
      "type": "function"
    },
    {
      "constant": true,
      "inputs": [],
      "name": "dollars_per_kilo_ether",
      "outputs": [
        {
          "name": "",
          "type": "uint256"
        }
      ],
      "payable": false,
      "stateMutability": "view",
      "type": "function"
    },
    {
      "constant": true,
      "inputs": [],
      "name": "endTimestamp",
      "outputs": [
        {
          "name": "",
          "type": "uint256"
        }
      ],
      "payable": false,
      "stateMutability": "view",
      "type": "function"
    },
    {
      "constant": true,
      "inputs": [],
      "name": "saleSupply",
      "outputs": [
        {
          "name": "",
          "type": "uint256"
        }
      ],
      "payable": false,
      "stateMutability": "view",
      "type": "function"
    },
    {
      "constant": true,
      "inputs": [],
      "name": "_now",
      "outputs": [
        {
          "name": "",
          "type": "uint256"
        }
      ],
      "payable": false,
      "stateMutability": "view",
      "type": "function"
    },
    {
      "constant": false,
      "inputs": [
        {
          "name": "_start",
          "type": "uint256"
        }
      ],
      "name": "setStartTimestamp",
      "outputs": [
        {
          "name": "",
          "type": "bool"
        }
      ],
      "payable": false,
      "stateMutability": "nonpayable",
      "type": "function"
    },
    {
      "constant": true,
      "inputs": [],
      "name": "ETH_DECIMALS_FACTOR",
      "outputs": [
        {
          "name": "",
          "type": "uint256"
        }
      ],
      "payable": false,
      "stateMutability": "view",
      "type": "function"
    },
    {
      "constant": true,
      "inputs": [],
      "name": "currentTime",
      "outputs": [
        {
          "name": "",
          "type": "uint256"
        }
      ],
      "payable": false,
      "stateMutability": "view",
      "type": "function"
    },
    {
      "constant": false,
      "inputs": [
        {
          "name": "_contributor",
          "type": "address"
        },
        {
          "name": "_tokens",
          "type": "uint256"
        },
        {
          "name": "_contributorPhase",
          "type": "uint8"
        }
      ],
      "name": "addPresale",
      "outputs": [
        {
          "name": "",
          "type": "bool"
        }
      ],
      "payable": true,
      "stateMutability": "payable",
      "type": "function"
    },
    {
      "constant": true,
      "inputs": [],
      "name": "startTimestamp",
      "outputs": [
        {
          "name": "",
          "type": "uint256"
        }
      ],
      "payable": false,
      "stateMutability": "view",
      "type": "function"
    },
    {
      "constant": false,
      "inputs": [
        {
          "name": "_tokensPerEther",
          "type": "uint256"
        }
      ],
      "name": "forceTokensPerEther",
      "outputs": [
        {
          "name": "",
          "type": "bool"
        }
      ],
      "payable": false,
      "stateMutability": "nonpayable",
      "type": "function"
    },
    {
      "constant": false,
      "inputs": [
        {
          "name": "newOwner",
          "type": "address"
        }
      ],
      "name": "transferOwnership",
      "outputs": [],
      "payable": false,
      "stateMutability": "nonpayable",
      "type": "function"
    },
    {
      "constant": true,
      "inputs": [],
      "name": "tokensPerEther",
      "outputs": [
        {
          "name": "",
          "type": "uint256"
        }
      ],
      "payable": false,
      "stateMutability": "view",
      "type": "function"
    },
    {
      "constant": true,
      "inputs": [],
      "name": "adminAddress",
      "outputs": [
        {
          "name": "",
          "type": "address"
        }
      ],
      "payable": false,
      "stateMutability": "view",
      "type": "function"
    },
    {
      "constant": false,
      "inputs": [
        {
          "name": "_contributor",
          "type": "address"
        },
        {
          "name": "_contributorPhase",
          "type": "uint8"
        }
      ],
      "name": "revokePresale",
      "outputs": [
        {
          "name": "",
          "type": "bool"
        }
      ],
      "payable": true,
      "stateMutability": "payable",
      "type": "function"
    },
    {
      "inputs": [
        {
          "name": "_tokenContract",
          "type": "address"
        },
        {
          "name": "_ledgerContract",
          "type": "address"
        },
        {
          "name": "_wallet",
          "type": "address"
        },
        {
          "name": "_start",
          "type": "uint256"
        },
        {
          "name": "_end",
          "type": "uint256"
        },
        {
          "name": "_tokensPerEther",
          "type": "uint256"
        },
        {
          "name": "_supply",
          "type": "uint256"
        },
        {
          "name": "_min_contribution",
          "type": "uint256"
        },
        {
          "name": "_max_contribution",
          "type": "uint256"
        },
        {
          "name": "_currentTime",
          "type": "uint256"
        }
      ],
      "payable": false,
      "stateMutability": "nonpayable",
      "type": "constructor"
    },
    {
      "payable": true,
      "stateMutability": "payable",
      "type": "fallback"
    },
    {
      "anonymous": false,
      "inputs": [
        {
          "indexed": false,
          "name": "_contributor",
          "type": "address"
        },
        {
          "indexed": false,
          "name": "_amount",
          "type": "uint256"
        }
      ],
      "name": "TokensPurchased",
      "type": "event"
    },
    {
      "anonymous": false,
      "inputs": [
        {
          "indexed": false,
          "name": "_who",
          "type": "address"
        },
        {
          "indexed": false,
          "name": "_account",
          "type": "address"
        },
        {
          "indexed": false,
          "name": "_phase",
          "type": "uint8"
        }
      ],
      "name": "WhiteListUpdated",
      "type": "event"
    },
    {
      "anonymous": false,
      "inputs": [],
      "name": "ContractCreated",
      "type": "event"
    },
    {
      "anonymous": false,
      "inputs": [
        {
          "indexed": false,
          "name": "_contributor",
          "type": "address"
        },
        {
          "indexed": false,
          "name": "_amount",
          "type": "uint256"
        },
        {
          "indexed": false,
          "name": "_phase",
          "type": "uint8"
        }
      ],
      "name": "PresaleAdded",
      "type": "event"
    },
    {
      "anonymous": false,
      "inputs": [
        {
          "indexed": false,
          "name": "_who",
          "type": "address"
        },
        {
          "indexed": false,
          "name": "_oldValue",
          "type": "uint256"
        },
        {
          "indexed": false,
          "name": "_newValue",
          "type": "uint256"
        }
      ],
      "name": "TokensPerEtherUpdated",
      "type": "event"
    },
    {
      "anonymous": false,
      "inputs": [
        {
          "indexed": false,
          "name": "_who",
          "type": "address"
        },
        {
          "indexed": false,
          "name": "_oldValue",
          "type": "uint256"
        },
        {
          "indexed": false,
          "name": "_newValue",
          "type": "uint256"
        }
      ],
      "name": "StartTimestampUpdated",
      "type": "event"
    },
    {
      "anonymous": false,
      "inputs": [
        {
          "indexed": false,
          "name": "_who",
          "type": "address"
        },
        {
          "indexed": false,
          "name": "_oldValue",
          "type": "uint256"
        },
        {
          "indexed": false,
          "name": "_newValue",
          "type": "uint256"
        }
      ],
      "name": "EndTimestampUpdated",
      "type": "event"
    },
    {
      "anonymous": false,
      "inputs": [
        {
          "indexed": false,
          "name": "_who",
          "type": "address"
        },
        {
          "indexed": false,
          "name": "_oldWallet",
          "type": "address"
        },
        {
          "indexed": false,
          "name": "_newWallet",
          "type": "address"
        }
      ],
      "name": "WalletUpdated",
      "type": "event"
    },
    {
      "anonymous": false,
      "inputs": [
        {
          "indexed": false,
          "name": "_who",
          "type": "address"
        },
        {
          "indexed": false,
          "name": "_oldValue",
          "type": "uint256"
        },
        {
          "indexed": false,
          "name": "_newValue",
          "type": "uint256"
        }
      ],
      "name": "SaleSupplyUpdated",
      "type": "event"
    },
    {
      "anonymous": false,
      "inputs": [
        {
          "indexed": false,
          "name": "_who",
          "type": "address"
        },
        {
          "indexed": false,
          "name": "_oldValue",
          "type": "uint256"
        },
        {
          "indexed": false,
          "name": "_newValue",
          "type": "uint256"
        }
      ],
      "name": "MinContributionUpdated",
      "type": "event"
    },
    {
      "anonymous": false,
      "inputs": [
        {
          "indexed": false,
          "name": "_who",
          "type": "address"
        },
        {
          "indexed": false,
          "name": "_oldValue",
          "type": "uint256"
        },
        {
          "indexed": false,
          "name": "_newValue",
          "type": "uint256"
        }
      ],
      "name": "MaxContributionUpdated",
      "type": "event"
    },
    {
      "anonymous": false,
      "inputs": [
        {
          "indexed": false,
          "name": "_who",
          "type": "address"
        },
        {
          "indexed": false,
          "name": "_timestamp",
          "type": "uint256"
        }
      ],
      "name": "Finalized",
      "type": "event"
    },
    {
      "anonymous": false,
      "inputs": [
        {
          "indexed": false,
          "name": "_who",
          "type": "address"
        },
        {
          "indexed": false,
          "name": "_amount",
          "type": "uint256"
        },
        {
          "indexed": false,
          "name": "_timestamp",
          "type": "uint256"
        }
      ],
      "name": "Burned",
      "type": "event"
    },
    {
      "anonymous": false,
      "inputs": [
        {
          "indexed": true,
          "name": "previousOwner",
          "type": "address"
        },
        {
          "indexed": true,
          "name": "newOwner",
          "type": "address"
        }
      ],
      "name": "OwnershipTransferred",
      "type": "event"
    }
  ],
  "bytecode": "0x60606040526000600d60146101000a81548160ff02191690831515021790555034156200002b57600080fd5b604051610140806200312e83398101604052808051906020019091908051906020019091908051906020019091908051906020019091908051906020019091908051906020019091908051906020019091908051906020019091908051906020019091908051906020019091905050898989600080600080600080336000806101000a81548173ffffffffffffffffffffffffffffffffffffffff021916908373ffffffffffffffffffffffffffffffffffffffff160217905550635aa07d009550635b3819809450600860ff16600a0a631ad2748002935067016345785d8a0000925068056bc75e2d63100000915062000142600a62061a80620003c66401000000000262002a03179091906401000000009004565b905062000162620003e2640100000000026200211d176401000000009004565b861115156200017057600080fd5b85851115156200017f57600080fd5b6000811115156200018f57600080fd5b600073ffffffffffffffffffffffffffffffffffffffff168973ffffffffffffffffffffffffffffffffffffffff1614151515620001cc57600080fd5b600073ffffffffffffffffffffffffffffffffffffffff168873ffffffffffffffffffffffffffffffffffffffff16141515156200020957600080fd5b600073ffffffffffffffffffffffffffffffffffffffff168773ffffffffffffffffffffffffffffffffffffffff16141515156200024657600080fd5b87600460006101000a81548173ffffffffffffffffffffffffffffffffffffffff021916908373ffffffffffffffffffffffffffffffffffffffff16021790555088600360006101000a81548173ffffffffffffffffffffffffffffffffffffffff021916908373ffffffffffffffffffffffffffffffffffffffff1602179055508560058190555084600681905550806007819055508360088190555082600b8190555081600c8190555086600d60006101000a81548173ffffffffffffffffffffffffffffffffffffffff021916908373ffffffffffffffffffffffffffffffffffffffff1602179055506000600a8190555060006009819055506000600d60146101000a81548160ff0219169083151502179055507fabd60e51a18b36604f00b5547417cf9051cc5c3a2e80e68206296e14be19f0bc60405160405180910390a150505050505050505080600f8190555086600581905550856006819055508360088190555082600b8190555050505050505050505050620003ec565b6000808284811515620003d557fe5b0490508091505092915050565b6000600f54905090565b612d3280620003fc6000396000f300606060405260043610610230576000357c0100000000000000000000000000000000000000000000000000000000900463ffffffff168063026345b61461023b57806303ed9d211461029057806304db5eed146102cb5780631a8fc985146103065780632c1e816d1461032f5780633290ce29146103805780634042b66f146103a257806340650c91146103cb578063473b0d46146103f4578063498b77181461042f5780634bb278f3146104585780634d399cb314610485578063521eb273146104e257806355a373d6146105375780635b7f415c1461058c5780635d0cb15d146105bb57806363b20117146105e4578063707789c51461060d57806374c06f5d1461065e578063781cd99d1461068b5780637974f8fe146106b45780637df6a6c8146106ef578063848b86e31461072a5780638d4e40831461077b5780638da5cb5b146107a85780638ea64376146107fd578063904bd6d01461085257806394d95f8f1461088d5780639b19251a146108b65780639d7233d4146109115780639f1326771461093a578063a07c765f14610963578063a5f75a5e1461098c578063a85adeab146109b5578063a96af0f4146109de578063b3bb8cd414610a07578063c44bef7514610a30578063ce809e4e14610a6b578063d18e81b314610a94578063dbf3d24214610abd578063e6fd48bc14610b18578063f190501d14610b41578063f2fde38b14610b7c578063f856d60514610bb5578063fc6f946814610bde578063fc914fdb14610c33575b610238610c85565b50005b341561024657600080fd5b61024e61115e565b604051808273ffffffffffffffffffffffffffffffffffffffff1673ffffffffffffffffffffffffffffffffffffffff16815260200191505060405180910390f35b341561029b57600080fd5b6102b16004808035906020019091905050611184565b604051808215151515815260200191505060405180910390f35b34156102d657600080fd5b6102ec60048080359060200190919050506112b0565b604051808215151515815260200191505060405180910390f35b341561031157600080fd5b6103196113dc565b6040518082815260200191505060405180910390f35b341561033a57600080fd5b610366600480803573ffffffffffffffffffffffffffffffffffffffff169060200190919050506113f6565b604051808215151515815260200191505060405180910390f35b610388610c85565b604051808215151515815260200191505060405180910390f35b34156103ad57600080fd5b6103b561149d565b6040518082815260200191505060405180910390f35b34156103d657600080fd5b6103de6114a3565b6040518082815260200191505060405180910390f35b34156103ff57600080fd5b61041560048080359060200190919050506114a9565b604051808215151515815260200191505060405180910390f35b341561043a57600080fd5b6104426115d5565b6040518082815260200191505060405180910390f35b341561046357600080fd5b61046b6115e0565b604051808215151515815260200191505060405180910390f35b341561049057600080fd5b6104c8600480803573ffffffffffffffffffffffffffffffffffffffff1690602001909190803560ff1690602001909190505061168c565b604051808215151515815260200191505060405180910390f35b34156104ed57600080fd5b6104f56118fe565b604051808273ffffffffffffffffffffffffffffffffffffffff1673ffffffffffffffffffffffffffffffffffffffff16815260200191505060405180910390f35b341561054257600080fd5b61054a611924565b604051808273ffffffffffffffffffffffffffffffffffffffff1673ffffffffffffffffffffffffffffffffffffffff16815260200191505060405180910390f35b341561059757600080fd5b61059f61194a565b604051808260ff1660ff16815260200191505060405180910390f35b34156105c657600080fd5b6105ce61194f565b6040518082815260200191505060405180910390f35b34156105ef57600080fd5b6105f7611960565b6040518082815260200191505060405180910390f35b341561061857600080fd5b610644600480803573ffffffffffffffffffffffffffffffffffffffff16906020019091905050611966565b604051808215151515815260200191505060405180910390f35b341561066957600080fd5b610671611a0d565b604051808215151515815260200191505060405180910390f35b341561069657600080fd5b61069e611a65565b6040518082815260200191505060405180910390f35b34156106bf57600080fd5b6106d56004808035906020019091905050611a6d565b604051808215151515815260200191505060405180910390f35b34156106fa57600080fd5b6107106004808035906020019091905050611ada565b604051808215151515815260200191505060405180910390f35b341561073557600080fd5b610761600480803573ffffffffffffffffffffffffffffffffffffffff16906020019091905050611c16565b604051808215151515815260200191505060405180910390f35b341561078657600080fd5b61078e611e50565b604051808215151515815260200191505060405180910390f35b34156107b357600080fd5b6107bb611e63565b604051808273ffffffffffffffffffffffffffffffffffffffff1673ffffffffffffffffffffffffffffffffffffffff16815260200191505060405180910390f35b341561080857600080fd5b610810611e88565b604051808273ffffffffffffffffffffffffffffffffffffffff1673ffffffffffffffffffffffffffffffffffffffff16815260200191505060405180910390f35b341561085d57600080fd5b6108736004808035906020019091905050611eae565b604051808215151515815260200191505060405180910390f35b341561089857600080fd5b6108a0611f74565b6040518082815260200191505060405180910390f35b34156108c157600080fd5b6108ed600480803573ffffffffffffffffffffffffffffffffffffffff16906020019091905050611f7a565b604051808260028111156108fd57fe5b60ff16815260200191505060405180910390f35b341561091c57600080fd5b610924611f9a565b6040518082815260200191505060405180910390f35b341561094557600080fd5b61094d611fa6565b6040518082815260200191505060405180910390f35b341561096e57600080fd5b610976611fb3565b6040518082815260200191505060405180910390f35b341561099757600080fd5b61099f611fbb565b6040518082815260200191505060405180910390f35b34156109c057600080fd5b6109c8611fc2565b6040518082815260200191505060405180910390f35b34156109e957600080fd5b6109f1611fc8565b6040518082815260200191505060405180910390f35b3415610a1257600080fd5b610a1a611fce565b6040518082815260200191505060405180910390f35b3415610a3b57600080fd5b610a516004808035906020019091905050611fd4565b604051808215151515815260200191505060405180910390f35b3415610a7657600080fd5b610a7e612115565b6040518082815260200191505060405180910390f35b3415610a9f57600080fd5b610aa761211d565b6040518082815260200191505060405180910390f35b610afe600480803573ffffffffffffffffffffffffffffffffffffffff1690602001909190803590602001909190803560ff16906020019091905050612127565b604051808215151515815260200191505060405180910390f35b3415610b2357600080fd5b610b2b6124fc565b6040518082815260200191505060405180910390f35b3415610b4c57600080fd5b610b626004808035906020019091905050612502565b604051808215151515815260200191505060405180910390f35b3415610b8757600080fd5b610bb3600480803573ffffffffffffffffffffffffffffffffffffffff1690602001909190505061256f565b005b3415610bc057600080fd5b610bc86126c4565b6040518082815260200191505060405180910390f35b3415610be957600080fd5b610bf16126ca565b604051808273ffffffffffffffffffffffffffffffffffffffff1673ffffffffffffffffffffffffffffffffffffffff16815260200191505060405180910390f35b610c6b600480803573ffffffffffffffffffffffffffffffffffffffff1690602001909190803560ff169060200190919050506126f0565b604051808215151515815260200191505060405180910390f35b600080600080600080600080600080610c9c61211d565b905080600554101515610cae57600080fd5b60065481101515610cbe57600080fd5b339850349750610ccd89612903565b1515610cd857600080fd5b600b548810151515610ce957600080fd5b600c548811151515610cfa57600080fd5b600854600a54101515610d0c57600080fd5b610d28600860ff16600a0a6007546129d090919063ffffffff16565b9650610d536012600a0a610d45898b6129d090919063ffffffff16565b612a0390919063ffffffff16565b955060009450859350610d73600a54600854612a1e90919063ffffffff16565b925085831015610dc157829350610da987610d9b6012600a0a876129d090919063ffffffff16565b612a0390919063ffffffff16565b9750610dbe8834612a1e90919063ffffffff16565b94505b610dd684600a54612a3790919063ffffffff16565b600a81905550610df160075485612a0390919063ffffffff16565b9150610e0882600954612a3790919063ffffffff16565b600981905550600460009054906101000a900473ffffffffffffffffffffffffffffffffffffffff1673ffffffffffffffffffffffffffffffffffffffff16639dcd662c8a86600080604051602001526040518463ffffffff167c0100000000000000000000000000000000000000000000000000000000028152600401808473ffffffffffffffffffffffffffffffffffffffff1673ffffffffffffffffffffffffffffffffffffffff1681526020018381526020018260ff1681526020019350505050602060405180830381600087803b1515610ee657600080fd5b6102c65a03f11515610ef757600080fd5b505050604051805190501515610f0c57600080fd5b600360009054906101000a900473ffffffffffffffffffffffffffffffffffffffff1673ffffffffffffffffffffffffffffffffffffffff1663a9059cbb600460009054906101000a900473ffffffffffffffffffffffffffffffffffffffff16866000604051602001526040518363ffffffff167c0100000000000000000000000000000000000000000000000000000000028152600401808373ffffffffffffffffffffffffffffffffffffffff1673ffffffffffffffffffffffffffffffffffffffff16815260200182815260200192505050602060405180830381600087803b1515610ffb57600080fd5b6102c65a03f1151561100c57600080fd5b50505060405180519050151561102157600080fd5b600085111561106b578873ffffffffffffffffffffffffffffffffffffffff166108fc869081150290604051600060405180830381858888f19350505050151561106a57600080fd5b5b600d60009054906101000a900473ffffffffffffffffffffffffffffffffffffffff1673ffffffffffffffffffffffffffffffffffffffff166108fc899081150290604051600060405180830381858888f1935050505015156110cd57600080fd5b7f8f28852646c20cc973d3a8218f7eefed58c25c909f78f0265af4818c3d4dc2718985604051808373ffffffffffffffffffffffffffffffffffffffff1673ffffffffffffffffffffffffffffffffffffffff1681526020018281526020019250505060405180910390a1600854600a54141561114e5761114c612a55565b505b6001995050505050505050505090565b600460009054906101000a900473ffffffffffffffffffffffffffffffffffffffff1681565b6000806000339050600073ffffffffffffffffffffffffffffffffffffffff168173ffffffffffffffffffffffffffffffffffffffff16141515156111c857600080fd5b600260009054906101000a900473ffffffffffffffffffffffffffffffffffffffff1673ffffffffffffffffffffffffffffffffffffffff168173ffffffffffffffffffffffffffffffffffffffff1614151561122457600080fd5b600c54915083600c819055507f97e165b35cdd33d0612173780f6b087e9d1bf014f1c2569b91e5463f043714dc3383600c54604051808473ffffffffffffffffffffffffffffffffffffffff1673ffffffffffffffffffffffffffffffffffffffff168152602001838152602001828152602001935050505060405180910390a1600192505050919050565b6000806000339050600073ffffffffffffffffffffffffffffffffffffffff168173ffffffffffffffffffffffffffffffffffffffff16141515156112f457600080fd5b600260009054906101000a900473ffffffffffffffffffffffffffffffffffffffff1673ffffffffffffffffffffffffffffffffffffffff168173ffffffffffffffffffffffffffffffffffffffff1614151561135057600080fd5b6008549150836008819055507fae201880b6d8b8551fa9233eecc9940900ae171044ee37737d480b4e3fe44f493383600854604051808473ffffffffffffffffffffffffffffffffffffffff1673ffffffffffffffffffffffffffffffffffffffff168152602001838152602001828152602001935050505060405180910390a1600192505050919050565b6113f3600a62061a80612a0390919063ffffffff16565b81565b60008060009054906101000a900473ffffffffffffffffffffffffffffffffffffffff1673ffffffffffffffffffffffffffffffffffffffff163373ffffffffffffffffffffffffffffffffffffffff1614151561145357600080fd5b81600260006101000a81548173ffffffffffffffffffffffffffffffffffffffff021916908373ffffffffffffffffffffffffffffffffffffffff16021790555060019050919050565b60095481565b600b5481565b6000806000339050600073ffffffffffffffffffffffffffffffffffffffff168173ffffffffffffffffffffffffffffffffffffffff16141515156114ed57600080fd5b600260009054906101000a900473ffffffffffffffffffffffffffffffffffffffff1673ffffffffffffffffffffffffffffffffffffffff168173ffffffffffffffffffffffffffffffffffffffff1614151561154957600080fd5b600b54915083600b819055507f21c9aa51794e3f9069f3de59b27bb45fbff651793d53a4488f1b67f6695440863383600b54604051808473ffffffffffffffffffffffffffffffffffffffff1673ffffffffffffffffffffffffffffffffffffffff168152602001838152602001828152602001935050505060405180910390a1600192505050919050565b600860ff16600a0a81565b600080339050600073ffffffffffffffffffffffffffffffffffffffff168173ffffffffffffffffffffffffffffffffffffffff161415151561162257600080fd5b600260009054906101000a900473ffffffffffffffffffffffffffffffffffffffff1673ffffffffffffffffffffffffffffffffffffffff168173ffffffffffffffffffffffffffffffffffffffff1614151561167e57600080fd5b611686612a55565b91505090565b6000806000339050600073ffffffffffffffffffffffffffffffffffffffff168173ffffffffffffffffffffffffffffffffffffffff16141515156116d057600080fd5b600260009054906101000a900473ffffffffffffffffffffffffffffffffffffffff1673ffffffffffffffffffffffffffffffffffffffff168173ffffffffffffffffffffffffffffffffffffffff1614151561172c57600080fd5b600073ffffffffffffffffffffffffffffffffffffffff168573ffffffffffffffffffffffffffffffffffffffff161415151561176857600080fd5b6001600281111561177557fe5b84600281111561178157fe5b14806117a2575060028081111561179457fe5b8460028111156117a057fe5b145b806117c35750600060028111156117b557fe5b8460028111156117c157fe5b145b15156117ce57600080fd5b6117d6611a0d565b1515156117e257600080fd5b83600e60008773ffffffffffffffffffffffffffffffffffffffff1673ffffffffffffffffffffffffffffffffffffffff16815260200190815260200160002060006101000a81548160ff0219169083600281111561183d57fe5b02179055503391507f3f3816908a5fa8ed32f84d4db7048658b4bd1fa807f45a93ce4ba9ad599cd34b828686604051808473ffffffffffffffffffffffffffffffffffffffff1673ffffffffffffffffffffffffffffffffffffffff1681526020018373ffffffffffffffffffffffffffffffffffffffff1673ffffffffffffffffffffffffffffffffffffffff1681526020018260028111156118dd57fe5b60ff168152602001935050505060405180910390a160019250505092915050565b600d60009054906101000a900473ffffffffffffffffffffffffffffffffffffffff1681565b600360009054906101000a900473ffffffffffffffffffffffffffffffffffffffff1681565b600881565b600860ff16600a0a631ad274800281565b600a5481565b60008060009054906101000a900473ffffffffffffffffffffffffffffffffffffffff1673ffffffffffffffffffffffffffffffffffffffff163373ffffffffffffffffffffffffffffffffffffffff161415156119c357600080fd5b81600160006101000a81548173ffffffffffffffffffffffffffffffffffffffff021916908373ffffffffffffffffffffffffffffffffffffffff16021790555060019050919050565b6000600d60149054906101000a900460ff1615611a2d5760019050611a62565b611a3561211d565b6006541015611a475760019050611a62565b600a54600854111515611a5d5760019050611a62565b600090505b90565b635aa07d0081565b60008060009054906101000a900473ffffffffffffffffffffffffffffffffffffffff1673ffffffffffffffffffffffffffffffffffffffff163373ffffffffffffffffffffffffffffffffffffffff16141515611aca57600080fd5b81600f8190555060019050919050565b6000806000339050600073ffffffffffffffffffffffffffffffffffffffff168173ffffffffffffffffffffffffffffffffffffffff1614151515611b1e57600080fd5b600260009054906101000a900473ffffffffffffffffffffffffffffffffffffffff1673ffffffffffffffffffffffffffffffffffffffff168173ffffffffffffffffffffffffffffffffffffffff16141515611b7a57600080fd5b60055484111515611b8a57600080fd5b6006549150836006819055507f0e0a217b45fa8e6dc38c0fda88bbbb9b96178275cacb888c6808412f591107dc3383600654604051808473ffffffffffffffffffffffffffffffffffffffff1673ffffffffffffffffffffffffffffffffffffffff168152602001838152602001828152602001935050505060405180910390a1600192505050919050565b6000806000339050600073ffffffffffffffffffffffffffffffffffffffff168173ffffffffffffffffffffffffffffffffffffffff1614151515611c5a57600080fd5b600260009054906101000a900473ffffffffffffffffffffffffffffffffffffffff1673ffffffffffffffffffffffffffffffffffffffff168173ffffffffffffffffffffffffffffffffffffffff16141515611cb657600080fd5b600073ffffffffffffffffffffffffffffffffffffffff168473ffffffffffffffffffffffffffffffffffffffff1614151515611cf257600080fd5b600d60009054906101000a900473ffffffffffffffffffffffffffffffffffffffff16915083600d60006101000a81548173ffffffffffffffffffffffffffffffffffffffff021916908373ffffffffffffffffffffffffffffffffffffffff1602179055507fa51743acc566a17de801f1b15ea2b3b0ef044d425ccb02be8d95d44455436d203383600d60009054906101000a900473ffffffffffffffffffffffffffffffffffffffff16604051808473ffffffffffffffffffffffffffffffffffffffff1673ffffffffffffffffffffffffffffffffffffffff1681526020018373ffffffffffffffffffffffffffffffffffffffff1673ffffffffffffffffffffffffffffffffffffffff1681526020018273ffffffffffffffffffffffffffffffffffffffff1673ffffffffffffffffffffffffffffffffffffffff168152602001935050505060405180910390a1600192505050919050565b600d60149054906101000a900460ff1681565b6000809054906101000a900473ffffffffffffffffffffffffffffffffffffffff1681565b600160009054906101000a900473ffffffffffffffffffffffffffffffffffffffff1681565b600080339050600073ffffffffffffffffffffffffffffffffffffffff168173ffffffffffffffffffffffffffffffffffffffff1614151515611ef057600080fd5b600260009054906101000a900473ffffffffffffffffffffffffffffffffffffffff1673ffffffffffffffffffffffffffffffffffffffff168173ffffffffffffffffffffffffffffffffffffffff16141515611f4c57600080fd5b600554611f5761211d565b101515611f6357600080fd5b611f6c83612c69565b915050919050565b600c5481565b600e6020528060005260406000206000915054906101000a900460ff1681565b67016345785d8a000081565b68056bc75e2d6310000081565b635b38198081565b62061a8081565b60065481565b60085481565b600f5481565b6000806000339050600073ffffffffffffffffffffffffffffffffffffffff168173ffffffffffffffffffffffffffffffffffffffff161415151561201857600080fd5b600260009054906101000a900473ffffffffffffffffffffffffffffffffffffffff1673ffffffffffffffffffffffffffffffffffffffff168173ffffffffffffffffffffffffffffffffffffffff1614151561207457600080fd5b61207c61211d565b8411151561208957600080fd5b6005549150836005819055507f2862939a113df50e6874fd0ebe19f330e3a50d2de096a9ac037b427bd17d3a433383600554604051808473ffffffffffffffffffffffffffffffffffffffff1673ffffffffffffffffffffffffffffffffffffffff168152602001838152602001828152602001935050505060405180910390a1600192505050919050565b6012600a0a81565b6000600f54905090565b600080600080339050600073ffffffffffffffffffffffffffffffffffffffff168173ffffffffffffffffffffffffffffffffffffffff161415151561216c57600080fd5b600260009054906101000a900473ffffffffffffffffffffffffffffffffffffffff1673ffffffffffffffffffffffffffffffffffffffff168173ffffffffffffffffffffffffffffffffffffffff161415156121c857600080fd5b6005546121d361211d565b1015156121df57600080fd5b6000861115156121ee57600080fd5b612208600860ff16600a0a876129d090919063ffffffff16565b9250612221600a54600854612a1e90919063ffffffff16565b915081831115151561223257600080fd5b600460009054906101000a900473ffffffffffffffffffffffffffffffffffffffff1673ffffffffffffffffffffffffffffffffffffffff16639dcd662c8885886000604051602001526040518463ffffffff167c0100000000000000000000000000000000000000000000000000000000028152600401808473ffffffffffffffffffffffffffffffffffffffff1673ffffffffffffffffffffffffffffffffffffffff1681526020018381526020018260ff1660ff1681526020019350505050602060405180830381600087803b151561230d57600080fd5b6102c65a03f1151561231e57600080fd5b50505060405180519050151561233357600080fd5b600360009054906101000a900473ffffffffffffffffffffffffffffffffffffffff1673ffffffffffffffffffffffffffffffffffffffff1663a9059cbb600460009054906101000a900473ffffffffffffffffffffffffffffffffffffffff16856000604051602001526040518363ffffffff167c0100000000000000000000000000000000000000000000000000000000028152600401808373ffffffffffffffffffffffffffffffffffffffff1673ffffffffffffffffffffffffffffffffffffffff16815260200182815260200192505050602060405180830381600087803b151561242257600080fd5b6102c65a03f1151561243357600080fd5b50505060405180519050151561244857600080fd5b61245d83600a54612a3790919063ffffffff16565b600a81905550600854600a54141561247957612477612a55565b505b7ffdec941f50161ee3bd56739e1e7b2747b09b0e0936ea55d83e3e6f7b9a2a1fa5878487604051808473ffffffffffffffffffffffffffffffffffffffff1673ffffffffffffffffffffffffffffffffffffffff1681526020018381526020018260ff1660ff168152602001935050505060405180910390a15050509392505050565b60055481565b60008060009054906101000a900473ffffffffffffffffffffffffffffffffffffffff1673ffffffffffffffffffffffffffffffffffffffff163373ffffffffffffffffffffffffffffffffffffffff1614151561255f57600080fd5b61256882612c69565b9050919050565b6000809054906101000a900473ffffffffffffffffffffffffffffffffffffffff1673ffffffffffffffffffffffffffffffffffffffff163373ffffffffffffffffffffffffffffffffffffffff161415156125ca57600080fd5b600073ffffffffffffffffffffffffffffffffffffffff168173ffffffffffffffffffffffffffffffffffffffff161415151561260657600080fd5b8073ffffffffffffffffffffffffffffffffffffffff166000809054906101000a900473ffffffffffffffffffffffffffffffffffffffff1673ffffffffffffffffffffffffffffffffffffffff167f8be0079c531659141344cd1fd0a4f28419497f9722a3daafe3b4186f6b6457e060405160405180910390a3806000806101000a81548173ffffffffffffffffffffffffffffffffffffffff021916908373ffffffffffffffffffffffffffffffffffffffff16021790555050565b60075481565b600260009054906101000a900473ffffffffffffffffffffffffffffffffffffffff1681565b6000806000339050600073ffffffffffffffffffffffffffffffffffffffff168173ffffffffffffffffffffffffffffffffffffffff161415151561273457600080fd5b600260009054906101000a900473ffffffffffffffffffffffffffffffffffffffff1673ffffffffffffffffffffffffffffffffffffffff168173ffffffffffffffffffffffffffffffffffffffff1614151561279057600080fd5b600073ffffffffffffffffffffffffffffffffffffffff168573ffffffffffffffffffffffffffffffffffffffff16141515156127cc57600080fd5b600460009054906101000a900473ffffffffffffffffffffffffffffffffffffffff1673ffffffffffffffffffffffffffffffffffffffff1663797f202e86866000604051602001526040518363ffffffff167c0100000000000000000000000000000000000000000000000000000000028152600401808373ffffffffffffffffffffffffffffffffffffffff1673ffffffffffffffffffffffffffffffffffffffff1681526020018260ff1660ff16815260200192505050602060405180830381600087803b151561289f57600080fd5b6102c65a03f115156128b057600080fd5b5050506040518051905091506000821115156128cb57600080fd5b600a5482111515156128dc57600080fd5b6128f182600a54612a1e90919063ffffffff16565b600a8190555060019250505092915050565b600080600e60008473ffffffffffffffffffffffffffffffffffffffff1673ffffffffffffffffffffffffffffffffffffffff16815260200190815260200160002060009054906101000a900460ff1690506000600281111561296257fe5b81600281111561296e57fe5b141561297d57600091506129ca565b6001600281111561298a57fe5b81600281111561299657fe5b14806129b757506002808111156129a957fe5b8160028111156129b557fe5b145b156129c557600191506129ca565b600091505b50919050565b600080828402905060008414806129f157508284828115156129ee57fe5b04145b15156129f957fe5b8091505092915050565b6000808284811515612a1157fe5b0490508091505092915050565b6000828211151515612a2c57fe5b818303905092915050565b6000808284019050838110151515612a4b57fe5b8091505092915050565b600080600d60149054906101000a900460ff16151515612a7457600080fd5b6001600d60146101000a81548160ff021916908315150217905550600854600a54141515612bef57612ab3600a54600854612a1e90919063ffffffff16565b9050600360009054906101000a900473ffffffffffffffffffffffffffffffffffffffff1673ffffffffffffffffffffffffffffffffffffffff166342966c68826040518263ffffffff167c010000000000000000000000000000000000000000000000000000000002815260040180828152602001915050600060405180830381600087803b1515612b4557600080fd5b6102c65a03f11515612b5657600080fd5b505050612b6e81600854612a1e90919063ffffffff16565b6008819055507f23ff0e75edf108e3d0392d92e13e8c8a868ef19001bd49f9e94876dc46dff87f3382612b9f61211d565b604051808473ffffffffffffffffffffffffffffffffffffffff1673ffffffffffffffffffffffffffffffffffffffff168152602001838152602001828152602001935050505060405180910390a15b7f66b6851664a82efe6b871e434faba2b11421d2dad65eb71a344ae76cca8a2b8633612c1961211d565b604051808373ffffffffffffffffffffffffffffffffffffffff1673ffffffffffffffffffffffffffffffffffffffff1681526020018281526020019250505060405180910390a1600191505090565b600080600083111515612c7b57600080fd5b6007549050826007819055507fe8f5c522733efafaa9c4f460ea05ee7b1605a75153e07df85282591614d9f7393382600754604051808473ffffffffffffffffffffffffffffffffffffffff1673ffffffffffffffffffffffffffffffffffffffff168152602001838152602001828152602001935050505060405180910390a160019150509190505600a165627a7a72305820c1544f9d53c641c6b65f31a19d72cb06f5386b1444d0460b8e57aa7c188df3190029",
  "source": "pragma solidity ^0.4.11;\nimport './Crowdsale.sol';\n\ncontract CrowdsaleMock is Crowdsale\n{\n    uint256 public _now;\n\n    function CrowdsaleMock(\n        J8TToken _tokenContract,\n        Ledger _ledgerContract,\n        address _wallet,\n        uint256 _start,\n        uint256 _end,\n        uint256 _tokensPerEther,\n        uint256 _supply,\n        uint256 _min_contribution,\n        uint256 _max_contribution,\n        uint256 _currentTime\n    ) public Crowdsale(_tokenContract, _ledgerContract, _wallet) {\n        _now             = _currentTime;\n        startTimestamp   = _start;\n        endTimestamp     = _end;\n        saleSupply       = _supply;\n        MIN_CONTRIBUTION = _min_contribution;\n    }\n\n    function currentTime() public view returns (uint256) {\n        return _now;\n    }\n\n    function changeTime(uint256 _newTime) public onlyOwner returns (bool) {\n        _now = _newTime;\n\n        return true;\n    }\n}\n",
  "sourcePath": "/Volumes/Workspace/projects/jumbo-contracts/contracts/CrowdsaleMock.sol",
  "compiler": {
    "name": "solc",
    "version": "0.4.18+commit.9cf6e910.Emscripten.clang"
  },
  "schemaVersion": "1.0.1",
  "updatedAt": "2018-01-20T22:19:23.397Z"
}