{
  "contractName": "Custodian",
  "abi": [
    {
      "constant": true,
      "inputs": [
        {
          "name": "",
          "type": "uint256"
        }
      ],
      "name": "allocations",
      "outputs": [
        {
          "name": "wallet",
          "type": "address"
        },
        {
          "name": "amount",
          "type": "uint256"
        },
        {
          "name": "allocationType",
          "type": "uint8"
        }
      ],
      "payable": false,
      "stateMutability": "view",
      "type": "function"
    },
    {
      "constant": false,
      "inputs": [
        {
          "name": "_adminAddress",
          "type": "address"
        }
      ],
      "name": "setAdminAddress",
      "outputs": [
        {
          "name": "",
          "type": "bool"
        }
      ],
      "payable": false,
      "stateMutability": "nonpayable",
      "type": "function"
    },
    {
      "constant": true,
      "inputs": [],
      "name": "currentAdvisorsSupply",
      "outputs": [
        {
          "name": "",
          "type": "uint256"
        }
      ],
      "payable": false,
      "stateMutability": "view",
      "type": "function"
    },
    {
      "constant": true,
      "inputs": [],
      "name": "currentTeamSupply",
      "outputs": [
        {
          "name": "",
          "type": "uint256"
        }
      ],
      "payable": false,
      "stateMutability": "view",
      "type": "function"
    },
    {
      "constant": true,
      "inputs": [],
      "name": "J8T_DECIMALS_FACTOR",
      "outputs": [
        {
          "name": "",
          "type": "uint256"
        }
      ],
      "payable": false,
      "stateMutability": "view",
      "type": "function"
    },
    {
      "constant": true,
      "inputs": [],
      "name": "tokenContract",
      "outputs": [
        {
          "name": "",
          "type": "address"
        }
      ],
      "payable": false,
      "stateMutability": "view",
      "type": "function"
    },
    {
      "constant": true,
      "inputs": [],
      "name": "TOKEN_DECIMALS",
      "outputs": [
        {
          "name": "",
          "type": "uint8"
        }
      ],
      "payable": false,
      "stateMutability": "view",
      "type": "function"
    },
    {
      "constant": true,
      "inputs": [],
      "name": "BOUNTY_SUPPLY",
      "outputs": [
        {
          "name": "",
          "type": "uint256"
        }
      ],
      "payable": false,
      "stateMutability": "view",
      "type": "function"
    },
    {
      "constant": false,
      "inputs": [
        {
          "name": "_opsAddress",
          "type": "address"
        }
      ],
      "name": "setOpsAddress",
      "outputs": [
        {
          "name": "",
          "type": "bool"
        }
      ],
      "payable": false,
      "stateMutability": "nonpayable",
      "type": "function"
    },
    {
      "constant": true,
      "inputs": [],
      "name": "owner",
      "outputs": [
        {
          "name": "",
          "type": "address"
        }
      ],
      "payable": false,
      "stateMutability": "view",
      "type": "function"
    },
    {
      "constant": true,
      "inputs": [],
      "name": "opsAddress",
      "outputs": [
        {
          "name": "",
          "type": "address"
        }
      ],
      "payable": false,
      "stateMutability": "view",
      "type": "function"
    },
    {
      "constant": false,
      "inputs": [
        {
          "name": "_amount",
          "type": "uint256"
        },
        {
          "name": "_wallet",
          "type": "address"
        },
        {
          "name": "_allocationType",
          "type": "uint8"
        }
      ],
      "name": "transferAllocation",
      "outputs": [
        {
          "name": "",
          "type": "bool"
        }
      ],
      "payable": false,
      "stateMutability": "nonpayable",
      "type": "function"
    },
    {
      "constant": true,
      "inputs": [],
      "name": "TEAM_SUPPLY",
      "outputs": [
        {
          "name": "",
          "type": "uint256"
        }
      ],
      "payable": false,
      "stateMutability": "view",
      "type": "function"
    },
    {
      "constant": false,
      "inputs": [
        {
          "name": "_amount",
          "type": "uint256"
        }
      ],
      "name": "setBountySupply",
      "outputs": [
        {
          "name": "",
          "type": "bool"
        }
      ],
      "payable": false,
      "stateMutability": "nonpayable",
      "type": "function"
    },
    {
      "constant": false,
      "inputs": [
        {
          "name": "_amount",
          "type": "uint256"
        }
      ],
      "name": "setAdvisorsSupply",
      "outputs": [
        {
          "name": "",
          "type": "bool"
        }
      ],
      "payable": false,
      "stateMutability": "nonpayable",
      "type": "function"
    },
    {
      "constant": true,
      "inputs": [],
      "name": "ADVISORS_SUPPLY",
      "outputs": [
        {
          "name": "",
          "type": "uint256"
        }
      ],
      "payable": false,
      "stateMutability": "view",
      "type": "function"
    },
    {
      "constant": true,
      "inputs": [],
      "name": "currentBountySupply",
      "outputs": [
        {
          "name": "",
          "type": "uint256"
        }
      ],
      "payable": false,
      "stateMutability": "view",
      "type": "function"
    },
    {
      "constant": false,
      "inputs": [
        {
          "name": "newOwner",
          "type": "address"
        }
      ],
      "name": "transferOwnership",
      "outputs": [],
      "payable": false,
      "stateMutability": "nonpayable",
      "type": "function"
    },
    {
      "constant": false,
      "inputs": [
        {
          "name": "_amount",
          "type": "uint256"
        }
      ],
      "name": "setTeamSupply",
      "outputs": [
        {
          "name": "",
          "type": "bool"
        }
      ],
      "payable": false,
      "stateMutability": "nonpayable",
      "type": "function"
    },
    {
      "constant": true,
      "inputs": [],
      "name": "adminAddress",
      "outputs": [
        {
          "name": "",
          "type": "address"
        }
      ],
      "payable": false,
      "stateMutability": "view",
      "type": "function"
    },
    {
      "inputs": [
        {
          "name": "_tokenContract",
          "type": "address"
        }
      ],
      "payable": false,
      "stateMutability": "nonpayable",
      "type": "constructor"
    },
    {
      "anonymous": false,
      "inputs": [
        {
          "indexed": false,
          "name": "wallet",
          "type": "address"
        },
        {
          "indexed": false,
          "name": "amount",
          "type": "uint256"
        },
        {
          "indexed": false,
          "name": "allocationType",
          "type": "uint8"
        }
      ],
      "name": "ProcessableAllocationProcessed",
      "type": "event"
    },
    {
      "anonymous": false,
      "inputs": [
        {
          "indexed": true,
          "name": "previousOwner",
          "type": "address"
        },
        {
          "indexed": true,
          "name": "newOwner",
          "type": "address"
        }
      ],
      "name": "OwnershipTransferred",
      "type": "event"
    }
  ],
  "bytecode": "0x606060405234156200001057600080fd5b604051602080620016f583398101604052808051906020019091905050336000806101000a81548173ffffffffffffffffffffffffffffffffffffffff021916908373ffffffffffffffffffffffffffffffffffffffff160217905550600073ffffffffffffffffffffffffffffffffffffffff168173ffffffffffffffffffffffffffffffffffffffff1614151515620000aa57600080fd5b80600360006101000a81548173ffffffffffffffffffffffffffffffffffffffff021916908373ffffffffffffffffffffffffffffffffffffffff16021790555062000119600860ff16600a0a6359682f006200018e6401000000000262001415179091906401000000009004565b6004819055506200014d600860ff16600a0a6359682f006200018e6401000000000262001415179091906401000000009004565b60068190555062000181600860ff16600a0a6359682f006200018e6401000000000262001415179091906401000000009004565b60058190555050620001c4565b60008082840290506000841480620001b15750828482811515620001ae57fe5b04145b1515620001ba57fe5b8091505092915050565b61152180620001d46000396000f300606060405260043610610112576000357c0100000000000000000000000000000000000000000000000000000000900463ffffffff1680630a2642bf146101175780632c1e816d146101965780632eef2c20146101e75780633820e90c14610210578063498b77181461023957806355a373d6146102625780635b7f415c146102b75780635d771933146102e6578063707789c51461030f5780638da5cb5b146103605780638ea64376146103b5578063acb455751461040a578063b9c3a81814610470578063be303b7f14610499578063d582bbd9146104d4578063d9a4759c1461050f578063e6a2726c14610538578063f2fde38b14610561578063f8f103dd1461059a578063fc6f9468146105d5575b600080fd5b341561012257600080fd5b610138600480803590602001909190505061062a565b604051808473ffffffffffffffffffffffffffffffffffffffff1673ffffffffffffffffffffffffffffffffffffffff16815260200183815260200182600281111561018057fe5b60ff168152602001935050505060405180910390f35b34156101a157600080fd5b6101cd600480803573ffffffffffffffffffffffffffffffffffffffff16906020019091905050610690565b604051808215151515815260200191505060405180910390f35b34156101f257600080fd5b6101fa610737565b6040518082815260200191505060405180910390f35b341561021b57600080fd5b61022361073d565b6040518082815260200191505060405180910390f35b341561024457600080fd5b61024c610743565b6040518082815260200191505060405180910390f35b341561026d57600080fd5b61027561074e565b604051808273ffffffffffffffffffffffffffffffffffffffff1673ffffffffffffffffffffffffffffffffffffffff16815260200191505060405180910390f35b34156102c257600080fd5b6102ca610774565b604051808260ff1660ff16815260200191505060405180910390f35b34156102f157600080fd5b6102f9610779565b6040518082815260200191505060405180910390f35b341561031a57600080fd5b610346600480803573ffffffffffffffffffffffffffffffffffffffff16906020019091905050610781565b604051808215151515815260200191505060405180910390f35b341561036b57600080fd5b610373610828565b604051808273ffffffffffffffffffffffffffffffffffffffff1673ffffffffffffffffffffffffffffffffffffffff16815260200191505060405180910390f35b34156103c057600080fd5b6103c861084d565b604051808273ffffffffffffffffffffffffffffffffffffffff1673ffffffffffffffffffffffffffffffffffffffff16815260200191505060405180910390f35b341561041557600080fd5b610456600480803590602001909190803573ffffffffffffffffffffffffffffffffffffffff1690602001909190803560ff16906020019091905050610873565b604051808215151515815260200191505060405180910390f35b341561047b57600080fd5b610483610f6f565b6040518082815260200191505060405180910390f35b34156104a457600080fd5b6104ba6004808035906020019091905050610f77565b604051808215151515815260200191505060405180910390f35b34156104df57600080fd5b6104f5600480803590602001909190505061107e565b604051808215151515815260200191505060405180910390f35b341561051a57600080fd5b610522611185565b6040518082815260200191505060405180910390f35b341561054357600080fd5b61054b61118d565b6040518082815260200191505060405180910390f35b341561056c57600080fd5b610598600480803573ffffffffffffffffffffffffffffffffffffffff16906020019091905050611193565b005b34156105a557600080fd5b6105bb60048080359060200190919050506112e8565b604051808215151515815260200191505060405180910390f35b34156105e057600080fd5b6105e86113ef565b604051808273ffffffffffffffffffffffffffffffffffffffff1673ffffffffffffffffffffffffffffffffffffffff16815260200191505060405180910390f35b60078181548110151561063957fe5b90600052602060002090600302016000915090508060000160009054906101000a900473ffffffffffffffffffffffffffffffffffffffff16908060010154908060020160009054906101000a900460ff16905083565b60008060009054906101000a900473ffffffffffffffffffffffffffffffffffffffff1673ffffffffffffffffffffffffffffffffffffffff163373ffffffffffffffffffffffffffffffffffffffff161415156106ed57600080fd5b81600260006101000a81548173ffffffffffffffffffffffffffffffffffffffff021916908373ffffffffffffffffffffffffffffffffffffffff16021790555060019050919050565b60065481565b60045481565b600860ff16600a0a81565b600360009054906101000a900473ffffffffffffffffffffffffffffffffffffffff1681565b600881565b6359682f0081565b60008060009054906101000a900473ffffffffffffffffffffffffffffffffffffffff1673ffffffffffffffffffffffffffffffffffffffff163373ffffffffffffffffffffffffffffffffffffffff161415156107de57600080fd5b81600160006101000a81548173ffffffffffffffffffffffffffffffffffffffff021916908373ffffffffffffffffffffffffffffffffffffffff16021790555060019050919050565b6000809054906101000a900473ffffffffffffffffffffffffffffffffffffffff1681565b600160009054906101000a900473ffffffffffffffffffffffffffffffffffffffff1681565b6000806000339050600073ffffffffffffffffffffffffffffffffffffffff168173ffffffffffffffffffffffffffffffffffffffff16141515156108b757600080fd5b600160009054906101000a900473ffffffffffffffffffffffffffffffffffffffff1673ffffffffffffffffffffffffffffffffffffffff168173ffffffffffffffffffffffffffffffffffffffff1614806109605750600260009054906101000a900473ffffffffffffffffffffffffffffffffffffffff1673ffffffffffffffffffffffffffffffffffffffff168173ffffffffffffffffffffffffffffffffffffffff16145b151561096b57600080fd5b600073ffffffffffffffffffffffffffffffffffffffff168573ffffffffffffffffffffffffffffffffffffffff16141515156109a757600080fd5b6000861115156109b657600080fd5b600060028111156109c357fe5b8460028111156109cf57fe5b14806109f057506002808111156109e257fe5b8460028111156109ee57fe5b145b80610a11575060016002811115610a0357fe5b846002811115610a0f57fe5b145b1515610a1c57600080fd5b610a36600860ff16600a0a8761141590919063ffffffff16565b915060006002811115610a4557fe5b846002811115610a5157fe5b1415610b7b576004548211151515610a6857600080fd5b600360009054906101000a900473ffffffffffffffffffffffffffffffffffffffff1673ffffffffffffffffffffffffffffffffffffffff1663a9059cbb86846000604051602001526040518363ffffffff167c0100000000000000000000000000000000000000000000000000000000028152600401808373ffffffffffffffffffffffffffffffffffffffff1673ffffffffffffffffffffffffffffffffffffffff16815260200182815260200192505050602060405180830381600087803b1515610b3557600080fd5b6102c65a03f11515610b4657600080fd5b505050604051805190501515610b5b57600080fd5b610b708260045461144890919063ffffffff16565b600481905550610dfe565b60016002811115610b8857fe5b846002811115610b9457fe5b1415610cbe576006548211151515610bab57600080fd5b600360009054906101000a900473ffffffffffffffffffffffffffffffffffffffff1673ffffffffffffffffffffffffffffffffffffffff1663a9059cbb86846000604051602001526040518363ffffffff167c0100000000000000000000000000000000000000000000000000000000028152600401808373ffffffffffffffffffffffffffffffffffffffff1673ffffffffffffffffffffffffffffffffffffffff16815260200182815260200192505050602060405180830381600087803b1515610c7857600080fd5b6102c65a03f11515610c8957600080fd5b505050604051805190501515610c9e57600080fd5b610cb38260065461144890919063ffffffff16565b600681905550610dfd565b600280811115610cca57fe5b846002811115610cd657fe5b1415610dfc576005548211151515610ced57600080fd5b600360009054906101000a900473ffffffffffffffffffffffffffffffffffffffff1673ffffffffffffffffffffffffffffffffffffffff1663a9059cbb86846000604051602001526040518363ffffffff167c0100000000000000000000000000000000000000000000000000000000028152600401808373ffffffffffffffffffffffffffffffffffffffff1673ffffffffffffffffffffffffffffffffffffffff16815260200182815260200192505050602060405180830381600087803b1515610dba57600080fd5b6102c65a03f11515610dcb57600080fd5b505050604051805190501515610de057600080fd5b610df58260055461144890919063ffffffff16565b6005819055505b5b5b60078054806001018281610e129190611461565b916000526020600020906003020160006060604051908101604052808973ffffffffffffffffffffffffffffffffffffffff168152602001868152602001886002811115610e5c57fe5b815250909190915060008201518160000160006101000a81548173ffffffffffffffffffffffffffffffffffffffff021916908373ffffffffffffffffffffffffffffffffffffffff1602179055506020820151816001015560408201518160020160006101000a81548160ff02191690836002811115610ed957fe5b02179055505050507ff1731c98d760bb52a6b7170ddadedfe5ae24b63a885c9638427fe1d008202277858386604051808473ffffffffffffffffffffffffffffffffffffffff1673ffffffffffffffffffffffffffffffffffffffff168152602001838152602001826002811115610f4d57fe5b60ff168152602001935050505060405180910390a16001925050509392505050565b6359682f0081565b600080339050600073ffffffffffffffffffffffffffffffffffffffff168173ffffffffffffffffffffffffffffffffffffffff1614151515610fb957600080fd5b600160009054906101000a900473ffffffffffffffffffffffffffffffffffffffff1673ffffffffffffffffffffffffffffffffffffffff168173ffffffffffffffffffffffffffffffffffffffff1614806110625750600260009054906101000a900473ffffffffffffffffffffffffffffffffffffffff1673ffffffffffffffffffffffffffffffffffffffff168173ffffffffffffffffffffffffffffffffffffffff16145b151561106d57600080fd5b826005819055506001915050919050565b600080339050600073ffffffffffffffffffffffffffffffffffffffff168173ffffffffffffffffffffffffffffffffffffffff16141515156110c057600080fd5b600160009054906101000a900473ffffffffffffffffffffffffffffffffffffffff1673ffffffffffffffffffffffffffffffffffffffff168173ffffffffffffffffffffffffffffffffffffffff1614806111695750600260009054906101000a900473ffffffffffffffffffffffffffffffffffffffff1673ffffffffffffffffffffffffffffffffffffffff168173ffffffffffffffffffffffffffffffffffffffff16145b151561117457600080fd5b826006819055506001915050919050565b6359682f0081565b60055481565b6000809054906101000a900473ffffffffffffffffffffffffffffffffffffffff1673ffffffffffffffffffffffffffffffffffffffff163373ffffffffffffffffffffffffffffffffffffffff161415156111ee57600080fd5b600073ffffffffffffffffffffffffffffffffffffffff168173ffffffffffffffffffffffffffffffffffffffff161415151561122a57600080fd5b8073ffffffffffffffffffffffffffffffffffffffff166000809054906101000a900473ffffffffffffffffffffffffffffffffffffffff1673ffffffffffffffffffffffffffffffffffffffff167f8be0079c531659141344cd1fd0a4f28419497f9722a3daafe3b4186f6b6457e060405160405180910390a3806000806101000a81548173ffffffffffffffffffffffffffffffffffffffff021916908373ffffffffffffffffffffffffffffffffffffffff16021790555050565b600080339050600073ffffffffffffffffffffffffffffffffffffffff168173ffffffffffffffffffffffffffffffffffffffff161415151561132a57600080fd5b600160009054906101000a900473ffffffffffffffffffffffffffffffffffffffff1673ffffffffffffffffffffffffffffffffffffffff168173ffffffffffffffffffffffffffffffffffffffff1614806113d35750600260009054906101000a900473ffffffffffffffffffffffffffffffffffffffff1673ffffffffffffffffffffffffffffffffffffffff168173ffffffffffffffffffffffffffffffffffffffff16145b15156113de57600080fd5b826004819055506001915050919050565b600260009054906101000a900473ffffffffffffffffffffffffffffffffffffffff1681565b60008082840290506000841480611436575082848281151561143357fe5b04145b151561143e57fe5b8091505092915050565b600082821115151561145657fe5b818303905092915050565b81548183558181151161148e5760030281600302836000526020600020918201910161148d9190611493565b5b505050565b6114f291905b808211156114ee57600080820160006101000a81549073ffffffffffffffffffffffffffffffffffffffff021916905560018201600090556002820160006101000a81549060ff021916905550600301611499565b5090565b905600a165627a7a723058203c8cb42d2395482297734caaae368bd90e495ddf85ccdd4be5b593038c4cde3b0029",
  "source": "pragma solidity ^0.4.17;\nimport './J8TToken.sol';\nimport './ACLManaged.sol';\n\ncontract Custodian is ACLManaged {\n\t\n\tusing SafeMath for uint256;\n\n\tuint8 public constant TOKEN_DECIMALS = 8;\n    uint256 public constant J8T_DECIMALS_FACTOR = 10**uint256(TOKEN_DECIMALS);\n\n    // The team token allocation is 10% of the total token supply\n\t// \t\tteam = 1500000000*0.1 = 150000000*(10**8) luckys\n\t// The advisors token allocation is 13% of the total token supply\n\t// \t\tadvisors = 1500000000*0.13 = 195000000*(10**8) luckys\n\t// The bounty token allocation is 2% of the total token supply\n\t// \t\tbounty = 1500000000*0.02 = 30000000*(10**8) luckys\n\n\tuint256 public constant TEAM_SUPPLY = 1500000000;\n\tuint256 public constant ADVISORS_SUPPLY = 1500000000;\n\tuint256 public constant BOUNTY_SUPPLY = 1500000000;\n\n\n\tJ8TToken public tokenContract;\n\n\tuint256 public currentTeamSupply;\n\tuint256 public currentBountySupply;\n\tuint256 public currentAdvisorsSupply;\n\n\n\t// Each token distribution is represented by the AllocationType enum\n\t// There are three types of allocation:\n\t// Team - 10% token supply\n\t// Advisors - 13% token supply\n\t// Bounty - 2% token supply\n\tenum AllocationType {\n\t\tTeam, Advisors, Bounty\n\t}\n\n\t// Allocation struct\n\tstruct ProcessableAllocation {\n\t\taddress wallet;\n\t\tuint256 amount;\n\t\tAllocationType allocationType;\n\t}\n\n\t// We log all allocation\n\tProcessableAllocation[] public allocations;\n\n\t// We trigger the event once the allocation has been processed\n\tevent ProcessableAllocationProcessed(address wallet, uint256 amount, AllocationType allocationType);\n\n\tfunction Custodian(J8TToken _tokenContract) public {\n    \trequire(address(_tokenContract) != address(0));\n    \ttokenContract = _tokenContract;\n\n    \t// The team token allocation is 10% of the total token supply\n    \t// \t\tteam = 1500000000*0.1 = 150000000*(10**8) luckys\n  \t\t// The advisors token allocation is 13% of the total token supply\n    \t// \t\tadvisors = 1500000000*0.13 = 195000000*(10**8) luckys\n  \t\t// The bounty token allocation is 2% of the total token supply\n    \t// \t\tbounty = 1500000000*0.02 = 30000000*(10**8) luckys\n\n    \tcurrentTeamSupply = TEAM_SUPPLY.mul(J8T_DECIMALS_FACTOR);\n    \tcurrentAdvisorsSupply = ADVISORS_SUPPLY.mul(J8T_DECIMALS_FACTOR);\n    \tcurrentBountySupply = BOUNTY_SUPPLY.mul(J8T_DECIMALS_FACTOR);\n    }\n\n\tfunction transferAllocation(uint256 _amount, address _wallet, AllocationType _allocationType) public onlyAdminAndOps returns (bool) {\n\t\trequire(_wallet != address(0));\n\t\trequire(_amount > 0);\n\t\trequire(_allocationType == AllocationType.Team ||\n\t\t\t\t_allocationType == AllocationType.Bounty || \n\t\t\t\t_allocationType == AllocationType.Advisors);\n\n\t\t// We need to convert the amount of tokens to all J8T token decimal factor, 10**8 lucky\n\t\tuint256 tokensToAllocate = _amount.mul(J8T_DECIMALS_FACTOR);\n\n\n\t\t// We need to update the allocation supply and tranfer the J8T tokens to the wallet\n\t\t// There are three types of allocation:\n\t\t// Team - 10% token supply\n\t\t// Advisors - 12% token supply\n\t\t// Bounty - 2% token supply\n\n\t\tif (_allocationType == AllocationType.Team) {\n\t\t\trequire(tokensToAllocate <= currentTeamSupply);\n\t\t\trequire(tokenContract.transfer(_wallet, tokensToAllocate));\n\t\t\tcurrentTeamSupply = currentTeamSupply.sub(tokensToAllocate);\n\t\t} else if (_allocationType == AllocationType.Advisors) {\n\t\t\trequire(tokensToAllocate <= currentAdvisorsSupply);\n\t\t\trequire(tokenContract.transfer(_wallet, tokensToAllocate));\n\t\t\tcurrentAdvisorsSupply = currentAdvisorsSupply.sub(tokensToAllocate);\n\t\t} else if (_allocationType == AllocationType.Bounty) {\n\t\t\trequire(tokensToAllocate <= currentBountySupply);\n\t\t\trequire(tokenContract.transfer(_wallet, tokensToAllocate));\n\t\t\tcurrentBountySupply = currentBountySupply.sub(tokensToAllocate);\n\t\t}\n\n\t\t// We log the allocation that has been processed and trigger the ProcessableAllocationProcessed event\n\t\tallocations.push(ProcessableAllocation(_wallet, tokensToAllocate, _allocationType));\n\t\tProcessableAllocationProcessed(_wallet, tokensToAllocate, _allocationType);\n\n\t\treturn true;\n\t}\n\n\tfunction setTeamSupply(uint256 _amount) external onlyAdminAndOps returns (bool) {\n        currentTeamSupply = _amount;\n        return true;\n    }\n\n    function setAdvisorsSupply(uint256 _amount) external onlyAdminAndOps returns (bool) {\n        currentAdvisorsSupply = _amount;\n        return true;\n    }\n\n    function setBountySupply(uint256 _amount) external onlyAdminAndOps returns (bool) {\n        currentBountySupply = _amount;\n        return true;\n    }\n}",
  "sourcePath": "/Volumes/Workspace/projects/jumbo-contracts/contracts/Custodian.sol",
  "compiler": {
    "name": "solc",
    "version": "0.4.18+commit.9cf6e910.Emscripten.clang"
  },
  "schemaVersion": "1.0.1",
  "updatedAt": "2018-01-20T22:26:14.028Z"
}