{
  "contractName": "Ledger",
  "abi": [
    {
      "constant": true,
      "inputs": [],
      "name": "totalPublicAllocation",
      "outputs": [
        {
          "name": "",
          "type": "uint256"
        }
      ],
      "payable": false,
      "stateMutability": "view",
      "type": "function"
    },
    {
      "constant": true,
      "inputs": [],
      "name": "totalPrivateAllocation",
      "outputs": [
        {
          "name": "",
          "type": "uint256"
        }
      ],
      "payable": false,
      "stateMutability": "view",
      "type": "function"
    },
    {
      "constant": false,
      "inputs": [
        {
          "name": "_canClaimTokens",
          "type": "bool"
        }
      ],
      "name": "setCanClaimTokens",
      "outputs": [
        {
          "name": "",
          "type": "bool"
        }
      ],
      "payable": false,
      "stateMutability": "nonpayable",
      "type": "function"
    },
    {
      "constant": false,
      "inputs": [
        {
          "name": "_adminAddress",
          "type": "address"
        }
      ],
      "name": "setAdminAddress",
      "outputs": [
        {
          "name": "",
          "type": "bool"
        }
      ],
      "payable": false,
      "stateMutability": "nonpayable",
      "type": "function"
    },
    {
      "constant": true,
      "inputs": [],
      "name": "crowdsaleContract",
      "outputs": [
        {
          "name": "",
          "type": "address"
        }
      ],
      "payable": false,
      "stateMutability": "view",
      "type": "function"
    },
    {
      "constant": true,
      "inputs": [
        {
          "name": "",
          "type": "address"
        }
      ],
      "name": "publicAllocations",
      "outputs": [
        {
          "name": "amountGranted",
          "type": "uint256"
        },
        {
          "name": "isClaimed",
          "type": "bool"
        }
      ],
      "payable": false,
      "stateMutability": "view",
      "type": "function"
    },
    {
      "constant": false,
      "inputs": [],
      "name": "claimTokens",
      "outputs": [
        {
          "name": "",
          "type": "bool"
        }
      ],
      "payable": true,
      "stateMutability": "payable",
      "type": "function"
    },
    {
      "constant": true,
      "inputs": [],
      "name": "tokenContract",
      "outputs": [
        {
          "name": "",
          "type": "address"
        }
      ],
      "payable": false,
      "stateMutability": "view",
      "type": "function"
    },
    {
      "constant": false,
      "inputs": [
        {
          "name": "_crowdsaleContract",
          "type": "address"
        }
      ],
      "name": "setCrowdsaleContract",
      "outputs": [
        {
          "name": "",
          "type": "bool"
        }
      ],
      "payable": false,
      "stateMutability": "nonpayable",
      "type": "function"
    },
    {
      "constant": false,
      "inputs": [
        {
          "name": "_opsAddress",
          "type": "address"
        }
      ],
      "name": "setOpsAddress",
      "outputs": [
        {
          "name": "",
          "type": "bool"
        }
      ],
      "payable": false,
      "stateMutability": "nonpayable",
      "type": "function"
    },
    {
      "constant": true,
      "inputs": [],
      "name": "currentSupply",
      "outputs": [
        {
          "name": "",
          "type": "uint256"
        }
      ],
      "payable": false,
      "stateMutability": "view",
      "type": "function"
    },
    {
      "constant": false,
      "inputs": [
        {
          "name": "_contributor",
          "type": "address"
        },
        {
          "name": "_phase",
          "type": "uint8"
        }
      ],
      "name": "revokeAllocation",
      "outputs": [
        {
          "name": "",
          "type": "uint256"
        }
      ],
      "payable": true,
      "stateMutability": "payable",
      "type": "function"
    },
    {
      "constant": false,
      "inputs": [
        {
          "name": "_canClaimTokens",
          "type": "bool"
        }
      ],
      "name": "setCanClaimPresaleTokens",
      "outputs": [
        {
          "name": "",
          "type": "bool"
        }
      ],
      "payable": false,
      "stateMutability": "nonpayable",
      "type": "function"
    },
    {
      "constant": true,
      "inputs": [],
      "name": "owner",
      "outputs": [
        {
          "name": "",
          "type": "address"
        }
      ],
      "payable": false,
      "stateMutability": "view",
      "type": "function"
    },
    {
      "constant": true,
      "inputs": [],
      "name": "opsAddress",
      "outputs": [
        {
          "name": "",
          "type": "address"
        }
      ],
      "payable": false,
      "stateMutability": "view",
      "type": "function"
    },
    {
      "constant": false,
      "inputs": [
        {
          "name": "_contributor",
          "type": "address"
        },
        {
          "name": "_amount",
          "type": "uint256"
        },
        {
          "name": "_phase",
          "type": "uint8"
        }
      ],
      "name": "addAllocation",
      "outputs": [
        {
          "name": "",
          "type": "bool"
        }
      ],
      "payable": false,
      "stateMutability": "nonpayable",
      "type": "function"
    },
    {
      "constant": true,
      "inputs": [],
      "name": "canClaimPresaleTokens",
      "outputs": [
        {
          "name": "",
          "type": "bool"
        }
      ],
      "payable": false,
      "stateMutability": "view",
      "type": "function"
    },
    {
      "constant": true,
      "inputs": [
        {
          "name": "",
          "type": "address"
        }
      ],
      "name": "presaleAllocations",
      "outputs": [
        {
          "name": "amountGranted",
          "type": "uint256"
        },
        {
          "name": "isClaimed",
          "type": "bool"
        }
      ],
      "payable": false,
      "stateMutability": "view",
      "type": "function"
    },
    {
      "constant": true,
      "inputs": [],
      "name": "canClaimPartnerTokens",
      "outputs": [
        {
          "name": "",
          "type": "bool"
        }
      ],
      "payable": false,
      "stateMutability": "view",
      "type": "function"
    },
    {
      "constant": false,
      "inputs": [
        {
          "name": "_canClaimTokens",
          "type": "bool"
        }
      ],
      "name": "setCanClaimPartnerTokens",
      "outputs": [
        {
          "name": "",
          "type": "bool"
        }
      ],
      "payable": false,
      "stateMutability": "nonpayable",
      "type": "function"
    },
    {
      "constant": true,
      "inputs": [
        {
          "name": "",
          "type": "address"
        }
      ],
      "name": "partnerAllocations",
      "outputs": [
        {
          "name": "amountGranted",
          "type": "uint256"
        },
        {
          "name": "isClaimed",
          "type": "bool"
        }
      ],
      "payable": false,
      "stateMutability": "view",
      "type": "function"
    },
    {
      "constant": true,
      "inputs": [],
      "name": "canClaimTokens",
      "outputs": [
        {
          "name": "",
          "type": "bool"
        }
      ],
      "payable": false,
      "stateMutability": "view",
      "type": "function"
    },
    {
      "constant": false,
      "inputs": [
        {
          "name": "newOwner",
          "type": "address"
        }
      ],
      "name": "transferOwnership",
      "outputs": [],
      "payable": false,
      "stateMutability": "nonpayable",
      "type": "function"
    },
    {
      "constant": true,
      "inputs": [],
      "name": "adminAddress",
      "outputs": [
        {
          "name": "",
          "type": "address"
        }
      ],
      "payable": false,
      "stateMutability": "view",
      "type": "function"
    },
    {
      "inputs": [
        {
          "name": "_tokenContract",
          "type": "address"
        }
      ],
      "payable": false,
      "stateMutability": "nonpayable",
      "type": "constructor"
    },
    {
      "payable": true,
      "stateMutability": "payable",
      "type": "fallback"
    },
    {
      "anonymous": false,
      "inputs": [
        {
          "indexed": false,
          "name": "_contributor",
          "type": "address"
        },
        {
          "indexed": false,
          "name": "_amount",
          "type": "uint256"
        },
        {
          "indexed": false,
          "name": "_phase",
          "type": "uint8"
        }
      ],
      "name": "AllocationGranted",
      "type": "event"
    },
    {
      "anonymous": false,
      "inputs": [
        {
          "indexed": false,
          "name": "_contributor",
          "type": "address"
        },
        {
          "indexed": false,
          "name": "_amount",
          "type": "uint256"
        },
        {
          "indexed": false,
          "name": "_phase",
          "type": "uint8"
        }
      ],
      "name": "AllocationRevoked",
      "type": "event"
    },
    {
      "anonymous": false,
      "inputs": [
        {
          "indexed": false,
          "name": "_contributor",
          "type": "address"
        },
        {
          "indexed": false,
          "name": "_amount",
          "type": "uint256"
        },
        {
          "indexed": false,
          "name": "_phase",
          "type": "uint8"
        }
      ],
      "name": "AllocationClaimed",
      "type": "event"
    },
    {
      "anonymous": false,
      "inputs": [
        {
          "indexed": true,
          "name": "previousOwner",
          "type": "address"
        },
        {
          "indexed": true,
          "name": "newOwner",
          "type": "address"
        }
      ],
      "name": "OwnershipTransferred",
      "type": "event"
    }
  ],
  "bytecode": "0x6060604052341561000f57600080fd5b60405160208061253d83398101604052808051906020019091905050336000806101000a81548173ffffffffffffffffffffffffffffffffffffffff021916908373ffffffffffffffffffffffffffffffffffffffff160217905550600073ffffffffffffffffffffffffffffffffffffffff168173ffffffffffffffffffffffffffffffffffffffff16141515156100a757600080fd5b80600660006101000a81548173ffffffffffffffffffffffffffffffffffffffff021916908373ffffffffffffffffffffffffffffffffffffffff1602179055506000600b60006101000a81548160ff0219169083151502179055506000600b60026101000a81548160ff0219169083151502179055506000600b60016101000a81548160ff021916908315150217905550506123f4806101496000396000f30060606040526004361061013e576000357c0100000000000000000000000000000000000000000000000000000000900463ffffffff168063018c65c214610149578063257ffb201461017257806329a980a21461019b5780632c1e816d146101d857806331616395146102295780633d7140f71461027e57806348c54b9d146102d657806355a373d6146102f85780636596cff31461034d578063707789c51461039e578063771282f6146103ef578063797f202e146104185780638a0f4fe4146104665780638da5cb5b146104a35780638ea64376146104f85780639dcd662c1461054d5780639e296c53146105b3578063b1144c9a146105e0578063b31400d314610638578063d348b44014610665578063d3e46a83146106a2578063e22a3af8146106fa578063f2fde38b14610727578063fc6f946814610760575b6101466107b5565b50005b341561015457600080fd5b61015c610edd565b6040518082815260200191505060405180910390f35b341561017d57600080fd5b610185610ee3565b6040518082815260200191505060405180910390f35b34156101a657600080fd5b6101be60048080351515906020019091905050610ee9565b604051808215151515815260200191505060405180910390f35b34156101e357600080fd5b61020f600480803573ffffffffffffffffffffffffffffffffffffffff16906020019091905050611003565b604051808215151515815260200191505060405180910390f35b341561023457600080fd5b61023c6110aa565b604051808273ffffffffffffffffffffffffffffffffffffffff1673ffffffffffffffffffffffffffffffffffffffff16815260200191505060405180910390f35b341561028957600080fd5b6102b5600480803573ffffffffffffffffffffffffffffffffffffffff169060200190919050506110d0565b60405180838152602001821515151581526020019250505060405180910390f35b6102de6107b5565b604051808215151515815260200191505060405180910390f35b341561030357600080fd5b61030b611101565b604051808273ffffffffffffffffffffffffffffffffffffffff1673ffffffffffffffffffffffffffffffffffffffff16815260200191505060405180910390f35b341561035857600080fd5b610384600480803573ffffffffffffffffffffffffffffffffffffffff16906020019091905050611127565b604051808215151515815260200191505060405180910390f35b34156103a957600080fd5b6103d5600480803573ffffffffffffffffffffffffffffffffffffffff169060200190919050506111ce565b604051808215151515815260200191505060405180910390f35b34156103fa57600080fd5b610402611275565b6040518082815260200191505060405180910390f35b610450600480803573ffffffffffffffffffffffffffffffffffffffff1690602001909190803560ff1690602001909190505061127b565b6040518082815260200191505060405180910390f35b341561047157600080fd5b610489600480803515159060200190919050506118fb565b604051808215151515815260200191505060405180910390f35b34156104ae57600080fd5b6104b6611a15565b604051808273ffffffffffffffffffffffffffffffffffffffff1673ffffffffffffffffffffffffffffffffffffffff16815260200191505060405180910390f35b341561050357600080fd5b61050b611a3a565b604051808273ffffffffffffffffffffffffffffffffffffffff1673ffffffffffffffffffffffffffffffffffffffff16815260200191505060405180910390f35b341561055857600080fd5b610599600480803573ffffffffffffffffffffffffffffffffffffffff1690602001909190803590602001909190803560ff16906020019091905050611a60565b604051808215151515815260200191505060405180910390f35b34156105be57600080fd5b6105c6612061565b604051808215151515815260200191505060405180910390f35b34156105eb57600080fd5b610617600480803573ffffffffffffffffffffffffffffffffffffffff16906020019091905050612074565b60405180838152602001821515151581526020019250505060405180910390f35b341561064357600080fd5b61064b6120a5565b604051808215151515815260200191505060405180910390f35b341561067057600080fd5b610688600480803515159060200190919050506120b8565b604051808215151515815260200191505060405180910390f35b34156106ad57600080fd5b6106d9600480803573ffffffffffffffffffffffffffffffffffffffff169060200190919050506121d2565b60405180838152602001821515151581526020019250505060405180910390f35b341561070557600080fd5b61070d612203565b604051808215151515815260200191505060405180910390f35b341561073257600080fd5b61075e600480803573ffffffffffffffffffffffffffffffffffffffff16906020019091905050612216565b005b341561076b57600080fd5b61077361236b565b604051808273ffffffffffffffffffffffffffffffffffffffff1673ffffffffffffffffffffffffffffffffffffffff16815260200191505060405180910390f35b600080600080600080600b60009054906101000a900460ff1615156107d957600080fd5b600073ffffffffffffffffffffffffffffffffffffffff163373ffffffffffffffffffffffffffffffffffffffff161415151561081557600080fd5b6000945060009350600360003373ffffffffffffffffffffffffffffffffffffffff1673ffffffffffffffffffffffffffffffffffffffff16815260200190815260200160002092506000836000015411801561088157508260010160009054906101000a900460ff16155b15610a455782600001549350600a54841115151561089e57600080fd5b600660009054906101000a900473ffffffffffffffffffffffffffffffffffffffff1673ffffffffffffffffffffffffffffffffffffffff1663a9059cbb33866000604051602001526040518363ffffffff167c0100000000000000000000000000000000000000000000000000000000028152600401808373ffffffffffffffffffffffffffffffffffffffff1673ffffffffffffffffffffffffffffffffffffffff16815260200182815260200192505050602060405180830381600087803b151561096b57600080fd5b6102c65a03f1151561097c57600080fd5b50505060405180519050151561099157600080fd5b6109a684600a5461239190919063ffffffff16565b600a8190555060018360010160006101000a81548160ff0219169083151502179055507f46c51d93d5cbed36f06b7fdd159e64ad4a0322c58001e8c2979573777a261fcb33856000604051808473ffffffffffffffffffffffffffffffffffffffff1673ffffffffffffffffffffffffffffffffffffffff1681526020018381526020018260ff168152602001935050505060405180910390a1600194505b600460003373ffffffffffffffffffffffffffffffffffffffff1673ffffffffffffffffffffffffffffffffffffffff168152602001908152602001600020915060008260000154118015610aa957508160010160009054906101000a900460ff16155b8015610ac15750600b60029054906101000a900460ff165b15610c855781600001549350600a548411151515610ade57600080fd5b600660009054906101000a900473ffffffffffffffffffffffffffffffffffffffff1673ffffffffffffffffffffffffffffffffffffffff1663a9059cbb33866000604051602001526040518363ffffffff167c0100000000000000000000000000000000000000000000000000000000028152600401808373ffffffffffffffffffffffffffffffffffffffff1673ffffffffffffffffffffffffffffffffffffffff16815260200182815260200192505050602060405180830381600087803b1515610bab57600080fd5b6102c65a03f11515610bbc57600080fd5b505050604051805190501515610bd157600080fd5b610be684600a5461239190919063ffffffff16565b600a8190555060018260010160006101000a81548160ff0219169083151502179055507f46c51d93d5cbed36f06b7fdd159e64ad4a0322c58001e8c2979573777a261fcb33856001604051808473ffffffffffffffffffffffffffffffffffffffff1673ffffffffffffffffffffffffffffffffffffffff1681526020018381526020018260ff168152602001935050505060405180910390a1600194505b600560003373ffffffffffffffffffffffffffffffffffffffff1673ffffffffffffffffffffffffffffffffffffffff168152602001908152602001600020905060008160000154118015610ce957508060010160009054906101000a900460ff16155b8015610d015750600b60019054906101000a900460ff165b15610ec55780600001549350600a548411151515610d1e57600080fd5b600660009054906101000a900473ffffffffffffffffffffffffffffffffffffffff1673ffffffffffffffffffffffffffffffffffffffff1663a9059cbb33866000604051602001526040518363ffffffff167c0100000000000000000000000000000000000000000000000000000000028152600401808373ffffffffffffffffffffffffffffffffffffffff1673ffffffffffffffffffffffffffffffffffffffff16815260200182815260200192505050602060405180830381600087803b1515610deb57600080fd5b6102c65a03f11515610dfc57600080fd5b505050604051805190501515610e1157600080fd5b610e2684600a5461239190919063ffffffff16565b600a8190555060018160010160006101000a81548160ff0219169083151502179055507f46c51d93d5cbed36f06b7fdd159e64ad4a0322c58001e8c2979573777a261fcb33856002604051808473ffffffffffffffffffffffffffffffffffffffff1673ffffffffffffffffffffffffffffffffffffffff1681526020018381526020018260ff168152602001935050505060405180910390a1600194505b841515610ed157600080fd5b60019550505050505090565b60095481565b60085481565b600080339050600073ffffffffffffffffffffffffffffffffffffffff168173ffffffffffffffffffffffffffffffffffffffff1614151515610f2b57600080fd5b600160009054906101000a900473ffffffffffffffffffffffffffffffffffffffff1673ffffffffffffffffffffffffffffffffffffffff168173ffffffffffffffffffffffffffffffffffffffff161480610fd45750600260009054906101000a900473ffffffffffffffffffffffffffffffffffffffff1673ffffffffffffffffffffffffffffffffffffffff168173ffffffffffffffffffffffffffffffffffffffff16145b1515610fdf57600080fd5b82600b60006101000a81548160ff0219169083151502179055506001915050919050565b60008060009054906101000a900473ffffffffffffffffffffffffffffffffffffffff1673ffffffffffffffffffffffffffffffffffffffff163373ffffffffffffffffffffffffffffffffffffffff1614151561106057600080fd5b81600260006101000a81548173ffffffffffffffffffffffffffffffffffffffff021916908373ffffffffffffffffffffffffffffffffffffffff16021790555060019050919050565b600760009054906101000a900473ffffffffffffffffffffffffffffffffffffffff1681565b60036020528060005260406000206000915090508060000154908060010160009054906101000a900460ff16905082565b600660009054906101000a900473ffffffffffffffffffffffffffffffffffffffff1681565b60008060009054906101000a900473ffffffffffffffffffffffffffffffffffffffff1673ffffffffffffffffffffffffffffffffffffffff163373ffffffffffffffffffffffffffffffffffffffff1614151561118457600080fd5b81600760006101000a81548173ffffffffffffffffffffffffffffffffffffffff021916908373ffffffffffffffffffffffffffffffffffffffff16021790555060019050919050565b60008060009054906101000a900473ffffffffffffffffffffffffffffffffffffffff1673ffffffffffffffffffffffffffffffffffffffff163373ffffffffffffffffffffffffffffffffffffffff1614151561122b57600080fd5b81600160006101000a81548173ffffffffffffffffffffffffffffffffffffffff021916908373ffffffffffffffffffffffffffffffffffffffff16021790555060019050919050565b600a5481565b600080600080339050600073ffffffffffffffffffffffffffffffffffffffff168173ffffffffffffffffffffffffffffffffffffffff16141515156112c057600080fd5b600160009054906101000a900473ffffffffffffffffffffffffffffffffffffffff1673ffffffffffffffffffffffffffffffffffffffff168173ffffffffffffffffffffffffffffffffffffffff1614806113695750600260009054906101000a900473ffffffffffffffffffffffffffffffffffffffff1673ffffffffffffffffffffffffffffffffffffffff168173ffffffffffffffffffffffffffffffffffffffff16145b151561137457600080fd5b600073ffffffffffffffffffffffffffffffffffffffff168673ffffffffffffffffffffffffffffffffffffffff16141515156113b057600080fd5b3073ffffffffffffffffffffffffffffffffffffffff168673ffffffffffffffffffffffffffffffffffffffff16141515156113eb57600080fd5b8460ff1660028111156113fa57fe5b92506000600281111561140957fe5b83600281111561141557fe5b148061143757506001600281111561142957fe5b83600281111561143557fe5b145b80611457575060028081111561144957fe5b83600281111561145557fe5b145b151561146257600080fd5b600091506000600281111561147357fe5b83600281111561147f57fe5b141561152d57600360008773ffffffffffffffffffffffffffffffffffffffff1673ffffffffffffffffffffffffffffffffffffffff168152602001908152602001600020600001549150600360008773ffffffffffffffffffffffffffffffffffffffff1673ffffffffffffffffffffffffffffffffffffffff1681526020019081526020016000206000808201600090556001820160006101000a81549060ff021916905550506116b8565b6001600281111561153a57fe5b83600281111561154657fe5b14156115f457600460008773ffffffffffffffffffffffffffffffffffffffff1673ffffffffffffffffffffffffffffffffffffffff168152602001908152602001600020600001549150600460008773ffffffffffffffffffffffffffffffffffffffff1673ffffffffffffffffffffffffffffffffffffffff1681526020019081526020016000206000808201600090556001820160006101000a81549060ff021916905550506116b7565b60028081111561160057fe5b83600281111561160c57fe5b14156116b657600560008773ffffffffffffffffffffffffffffffffffffffff1673ffffffffffffffffffffffffffffffffffffffff168152602001908152602001600020600001549150600560008773ffffffffffffffffffffffffffffffffffffffff1673ffffffffffffffffffffffffffffffffffffffff1681526020019081526020016000206000808201600090556001820160006101000a81549060ff021916905550505b5b5b600a5482111515156116c957600080fd5b6116de82600a5461239190919063ffffffff16565b600a81905550600060028111156116f157fe5b8360028111156116fd57fe5b141561173457600954821115151561171457600080fd5b6117298260095461239190919063ffffffff16565b600981905550611761565b600854821115151561174557600080fd5b61175a8260085461239190919063ffffffff16565b6008819055505b600660009054906101000a900473ffffffffffffffffffffffffffffffffffffffff1673ffffffffffffffffffffffffffffffffffffffff1663a9059cbb600760009054906101000a900473ffffffffffffffffffffffffffffffffffffffff16846000604051602001526040518363ffffffff167c0100000000000000000000000000000000000000000000000000000000028152600401808373ffffffffffffffffffffffffffffffffffffffff1673ffffffffffffffffffffffffffffffffffffffff16815260200182815260200192505050602060405180830381600087803b151561185057600080fd5b6102c65a03f1151561186157600080fd5b50505060405180519050151561187657600080fd5b7f2a00296a8bb64e722a7d641b29b1b11efde441c98cf2ce2e75c7ff866da7c723868387604051808473ffffffffffffffffffffffffffffffffffffffff1673ffffffffffffffffffffffffffffffffffffffff1681526020018381526020018260ff1660ff168152602001935050505060405180910390a181935050505092915050565b600080339050600073ffffffffffffffffffffffffffffffffffffffff168173ffffffffffffffffffffffffffffffffffffffff161415151561193d57600080fd5b600160009054906101000a900473ffffffffffffffffffffffffffffffffffffffff1673ffffffffffffffffffffffffffffffffffffffff168173ffffffffffffffffffffffffffffffffffffffff1614806119e65750600260009054906101000a900473ffffffffffffffffffffffffffffffffffffffff1673ffffffffffffffffffffffffffffffffffffffff168173ffffffffffffffffffffffffffffffffffffffff16145b15156119f157600080fd5b82600b60026101000a81548160ff0219169083151502179055506001915050919050565b6000809054906101000a900473ffffffffffffffffffffffffffffffffffffffff1681565b600160009054906101000a900473ffffffffffffffffffffffffffffffffffffffff1681565b6000806000806000339050600073ffffffffffffffffffffffffffffffffffffffff168173ffffffffffffffffffffffffffffffffffffffff1614151515611aa757600080fd5b600160009054906101000a900473ffffffffffffffffffffffffffffffffffffffff1673ffffffffffffffffffffffffffffffffffffffff168173ffffffffffffffffffffffffffffffffffffffff161480611b505750600260009054906101000a900473ffffffffffffffffffffffffffffffffffffffff1673ffffffffffffffffffffffffffffffffffffffff168173ffffffffffffffffffffffffffffffffffffffff16145b1515611b5b57600080fd5b600073ffffffffffffffffffffffffffffffffffffffff168873ffffffffffffffffffffffffffffffffffffffff1614151515611b9757600080fd5b3073ffffffffffffffffffffffffffffffffffffffff168873ffffffffffffffffffffffffffffffffffffffff1614151515611bd257600080fd5b600087111515611be157600080fd5b8560ff166002811115611bf057fe5b935060006002811115611bff57fe5b846002811115611c0b57fe5b1480611c2d575060016002811115611c1f57fe5b846002811115611c2b57fe5b145b80611c4d5750600280811115611c3f57fe5b846002811115611c4b57fe5b145b1515611c5857600080fd5b600092506000915060006002811115611c6d57fe5b846002811115611c7957fe5b1415611d6257600360008973ffffffffffffffffffffffffffffffffffffffff1673ffffffffffffffffffffffffffffffffffffffff168152602001908152602001600020600001549250611cd787846123aa90919063ffffffff16565b9150604080519081016040528083815260200160001515815250600360008a73ffffffffffffffffffffffffffffffffffffffff1673ffffffffffffffffffffffffffffffffffffffff1681526020019081526020016000206000820151816000015560208201518160010160006101000a81548160ff021916908315150217905550905050611f63565b60016002811115611d6f57fe5b846002811115611d7b57fe5b1415611e6457600460008973ffffffffffffffffffffffffffffffffffffffff1673ffffffffffffffffffffffffffffffffffffffff168152602001908152602001600020600001549250611dd987846123aa90919063ffffffff16565b9150604080519081016040528083815260200160001515815250600460008a73ffffffffffffffffffffffffffffffffffffffff1673ffffffffffffffffffffffffffffffffffffffff1681526020019081526020016000206000820151816000015560208201518160010160006101000a81548160ff021916908315150217905550905050611f62565b600280811115611e7057fe5b846002811115611e7c57fe5b1415611f6157600560008973ffffffffffffffffffffffffffffffffffffffff1673ffffffffffffffffffffffffffffffffffffffff168152602001908152602001600020600001549250611eda87846123aa90919063ffffffff16565b9150604080519081016040528083815260200160001515815250600560008a73ffffffffffffffffffffffffffffffffffffffff1673ffffffffffffffffffffffffffffffffffffffff1681526020019081526020016000206000820151816000015560208201518160010160006101000a81548160ff0219169083151502179055509050505b5b5b60006002811115611f7057fe5b846002811115611f7c57fe5b1415611fa257611f97876009546123aa90919063ffffffff16565b600981905550611fbe565b611fb7876008546123aa90919063ffffffff16565b6008819055505b611fd387600a546123aa90919063ffffffff16565b600a819055507f1ae3e9a9be9353c989a4e9470f07f39d8c6087206c281357a7c39123d5c7662c888388604051808473ffffffffffffffffffffffffffffffffffffffff1673ffffffffffffffffffffffffffffffffffffffff1681526020018381526020018260ff1660ff168152602001935050505060405180910390a160019450505050509392505050565b600b60029054906101000a900460ff1681565b60046020528060005260406000206000915090508060000154908060010160009054906101000a900460ff16905082565b600b60019054906101000a900460ff1681565b600080339050600073ffffffffffffffffffffffffffffffffffffffff168173ffffffffffffffffffffffffffffffffffffffff16141515156120fa57600080fd5b600160009054906101000a900473ffffffffffffffffffffffffffffffffffffffff1673ffffffffffffffffffffffffffffffffffffffff168173ffffffffffffffffffffffffffffffffffffffff1614806121a35750600260009054906101000a900473ffffffffffffffffffffffffffffffffffffffff1673ffffffffffffffffffffffffffffffffffffffff168173ffffffffffffffffffffffffffffffffffffffff16145b15156121ae57600080fd5b82600b60016101000a81548160ff0219169083151502179055506001915050919050565b60056020528060005260406000206000915090508060000154908060010160009054906101000a900460ff16905082565b600b60009054906101000a900460ff1681565b6000809054906101000a900473ffffffffffffffffffffffffffffffffffffffff1673ffffffffffffffffffffffffffffffffffffffff163373ffffffffffffffffffffffffffffffffffffffff1614151561227157600080fd5b600073ffffffffffffffffffffffffffffffffffffffff168173ffffffffffffffffffffffffffffffffffffffff16141515156122ad57600080fd5b8073ffffffffffffffffffffffffffffffffffffffff166000809054906101000a900473ffffffffffffffffffffffffffffffffffffffff1673ffffffffffffffffffffffffffffffffffffffff167f8be0079c531659141344cd1fd0a4f28419497f9722a3daafe3b4186f6b6457e060405160405180910390a3806000806101000a81548173ffffffffffffffffffffffffffffffffffffffff021916908373ffffffffffffffffffffffffffffffffffffffff16021790555050565b600260009054906101000a900473ffffffffffffffffffffffffffffffffffffffff1681565b600082821115151561239f57fe5b818303905092915050565b60008082840190508381101515156123be57fe5b80915050929150505600a165627a7a72305820a010686f084118685a8d0a82311c2c4db9aebc6b73a466869a61efbf371994cd0029",
  "source": "pragma solidity ^0.4.17;\nimport './J8TToken.sol';\nimport './ACLManaged.sol';\nimport './Crowdsale.sol';\n\n\ncontract Ledger is ACLManaged {\n\t\n\tusing SafeMath for uint256;\n\n    ///////////////////////\n    // Ledger PROPERTIES //\n    ///////////////////////\n\n\t// The Allocation struct represents a token sale purchase\n    // amountGranted is the amount of tokens purchased\n    // isClaimed whether the allocation has been alredy claimed\n\tstruct Allocation {\n\t\tuint256 amountGranted;\n\t\tbool isClaimed;\n\t}\n\n    // ContributionPhase enum cases are\n    // PublicContribution, the contribution has been made in the public sale phase\n    // PreSaleContribution, the contribution has been made in the presale phase\n    // PartnerContribution, the contribution has been made in the private phase\n    enum ContributionPhase {\n        PublicContribution, PreSaleContribution, PartnerContribution\n    }\n\n\t// Map of adresses that purchased tokens on the public phase\n    mapping(address => Allocation) public publicAllocations;\n\n    // Map of adresses that purchased tokens on the presale phase\n    mapping(address => Allocation) public presaleAllocations;\n\n    // Map of adresses that purchased tokens on the private phase\n    mapping(address => Allocation) public partnerAllocations;\n\n    // Reference to the J8TToken contract\n    J8TToken public tokenContract;\n\n    // Reference to the Crowdsale contract\n    Crowdsale public crowdsaleContract;\n\n    // Total private allocation, counting the amount of tokens from the\n    // partner and the presale phase\n    uint256 public totalPrivateAllocation;\n\n    // Total public allocation\n    uint256 public totalPublicAllocation;\n\n    // The current token supply stored in the Ledger contract\n    uint256 public currentSupply;\n\n    // Whether the token allocations can be claimed on the public sale phase\n    bool public canClaimTokens;\n\n    // Whether the token allocations can be claimed on the partner sale phase\n    bool public canClaimPartnerTokens;\n\n    // Whether the token allocations can be claimed on the presale sale phase\n    bool public canClaimPresaleTokens;\n\n    ///////////////////\n    // Ledger EVENTS //\n    ///////////////////\n\n    // Triggered when an allocation has been granted\n    event AllocationGranted(address _contributor, uint256 _amount, uint8 _phase);\n\n    // Triggered when an allocation has been revoked\n    event AllocationRevoked(address _contributor, uint256 _amount, uint8 _phase);\n\n    // Triggered when an allocation has been claimed\n    event AllocationClaimed(address _contributor, uint256 _amount, uint8 _phase);\n\n    //////////////////////\n    // Ledger FUNCTIONS //\n    //////////////////////\n\n    // Ledger constructor\n    // Sets default values for canClaimTokens, canClaimPresaleTokens and canClaimPartnerTokens properties\n    function Ledger(J8TToken _tokenContract) public {\n    \trequire(address(_tokenContract) != address(0));\n    \ttokenContract = _tokenContract;\n        canClaimTokens = false;\n        canClaimPresaleTokens = false;\n        canClaimPartnerTokens = false;\n    }\n\n    function () external payable {\n        claimTokens();\n    }\n\n    // Revokes an allocation from the contributor with address _contributor\n    // Deletes the allocation from the corresponding mapping property and transfers\n    // the total amount of tokens of the allocation back to the Crowdsale contract\n    function revokeAllocation(address _contributor, uint8 _phase) public onlyAdminAndOps payable returns (uint256) {\n        require(_contributor != address(0));\n        require(_contributor != address(this));\n\n        // Can't revoke  an allocation if the contribution phase is not in the ContributionPhase enum\n        ContributionPhase _contributionPhase = ContributionPhase(_phase);\n        require(_contributionPhase == ContributionPhase.PublicContribution ||\n                _contributionPhase == ContributionPhase.PreSaleContribution ||\n                _contributionPhase == ContributionPhase.PartnerContribution);\n\n        uint256 grantedAllocation = 0;\n\n        // Deletes the allocation from the respective mapping\n        if (_contributionPhase == ContributionPhase.PublicContribution) {\n            grantedAllocation = publicAllocations[_contributor].amountGranted;\n            delete publicAllocations[_contributor];\n        } else if (_contributionPhase == ContributionPhase.PreSaleContribution) {\n            grantedAllocation = presaleAllocations[_contributor].amountGranted;\n            delete presaleAllocations[_contributor];\n        } else if (_contributionPhase == ContributionPhase.PartnerContribution) {\n            grantedAllocation = partnerAllocations[_contributor].amountGranted;\n            delete partnerAllocations[_contributor];\n        }\n\n        // The granted amount allocation must be less that the current token supply on the contract\n        require(grantedAllocation <= currentSupply);\n\n        // Updates the current supply as well as the total public allocation and\n        // the total private allocation substracting the amount of tokens that has been revoked\n\n        currentSupply = currentSupply.sub(grantedAllocation);\n\n        if (_contributionPhase == ContributionPhase.PublicContribution) {\n            require(grantedAllocation <= totalPublicAllocation);\n            totalPublicAllocation = totalPublicAllocation.sub(grantedAllocation);\n        } else {\n            require(grantedAllocation <= totalPrivateAllocation);\n            totalPrivateAllocation = totalPrivateAllocation.sub(grantedAllocation);\n        }\n\n        // We sent back the amount of tokens that has been revoked to the corwdsale contract\n        require(tokenContract.transfer(address(crowdsaleContract), grantedAllocation));\n\n        AllocationRevoked(_contributor, grantedAllocation, _phase);\n\n        return grantedAllocation;\n\n    }\n\n    // Adds a new allocation for the contributor with address _contributor\n    function addAllocation(address _contributor, uint256 _amount, uint8 _phase) public onlyAdminAndOps returns (bool) {\n    \trequire(_contributor != address(0));\n    \trequire(_contributor != address(this));\n\n    \t// Can't create or update an allocation if the amount of tokens to be allocated is not greater than zero\n    \trequire(_amount > 0);\n\n        // Can't create an allocation if the contribution phase is not in the ContributionPhase enum\n        ContributionPhase _contributionPhase = ContributionPhase(_phase);\n        require(_contributionPhase == ContributionPhase.PublicContribution ||\n                _contributionPhase == ContributionPhase.PreSaleContribution ||\n                _contributionPhase == ContributionPhase.PartnerContribution);\n\n        uint256 grantedAllocation = 0;\n        uint256 totalGrantedAllocation = 0;\n\n        // Fetch the allocatio from the respective mapping and updates the granted amount of tokens\n        if (_contributionPhase == ContributionPhase.PublicContribution) {\n            grantedAllocation = publicAllocations[_contributor].amountGranted;\n            totalGrantedAllocation = grantedAllocation.add(_amount);\n            publicAllocations[_contributor] = Allocation(totalGrantedAllocation, false);\n        } else if (_contributionPhase == ContributionPhase.PreSaleContribution) {\n            grantedAllocation = presaleAllocations[_contributor].amountGranted;\n            totalGrantedAllocation = grantedAllocation.add(_amount);\n            presaleAllocations[_contributor] = Allocation(totalGrantedAllocation, false);\n        } else if (_contributionPhase == ContributionPhase.PartnerContribution) {\n            grantedAllocation = partnerAllocations[_contributor].amountGranted;\n            totalGrantedAllocation = grantedAllocation.add(_amount);\n            partnerAllocations[_contributor] = Allocation(totalGrantedAllocation, false);\n        }\n\n        // Updates the contract data\n        if (_contributionPhase == ContributionPhase.PublicContribution) {\n            totalPublicAllocation = totalPublicAllocation.add(_amount);\n        } else {\n            totalPrivateAllocation = totalPrivateAllocation.add(_amount);\n        }\n\n        currentSupply = currentSupply.add(_amount);\n\n        AllocationGranted(_contributor, totalGrantedAllocation, _phase);\n\n        return true;\n    }\n\n    // The claimTokens() function handles the contribution token claim.\n    // Tokens can only be claimed after we open this phase.\n    // The lockouts periods are defined by the foundation.\n    // There are 3 different lockouts:\n    //      Public sale lockout\n    //      Presale lockout\n    //      Partner lockout\n    //\n    // A contributor that has contributed in all the phases can claim\n    // all its tokens, but only the ones that are accesible to claim\n    // be transfered.\n    // \n    // A contributor can claim its tokens after each phase has been opened\n    function claimTokens() public payable onlyAfterOpenClaim returns (bool) {\n        require(msg.sender != address(0));\n\n        bool hasTransferedTokens = false;\n\n        // We need to check if the contributor has made a contribution on each\n        // phase, public, presale and partner\n\n        uint256 amountToTransfer = 0;\n\n        // If amount granted is greated than zero and the allocation hasn't\n        // been already claimed we proceed to transfer to tokens.\n        Allocation storage publicA = publicAllocations[msg.sender];\n        if (publicA.amountGranted > 0 && !publicA.isClaimed) {\n            amountToTransfer = publicA.amountGranted;\n            \n            // The amount to transfer must be less or equal to the current supply\n            require(amountToTransfer <= currentSupply);\n            require(tokenContract.transfer(msg.sender, amountToTransfer));\n\n            // We update the current supply by substracting the amount of tokens\n            // that has been transfered and we set the allocation as claimed\n            currentSupply = currentSupply.sub(amountToTransfer);\n            publicA.isClaimed = true;\n\n            AllocationClaimed(msg.sender, amountToTransfer, 0);\n            hasTransferedTokens = true;\n        }\n\n        Allocation storage presaleA = presaleAllocations[msg.sender];\n        if (presaleA.amountGranted > 0 && !presaleA.isClaimed && canClaimPresaleTokens) {\n            amountToTransfer = presaleA.amountGranted;\n\n            require(amountToTransfer <= currentSupply);\n            require(tokenContract.transfer(msg.sender, amountToTransfer));\n\n            currentSupply = currentSupply.sub(amountToTransfer);\n            presaleA.isClaimed = true;\n\n            AllocationClaimed(msg.sender, amountToTransfer, 1);\n            hasTransferedTokens = true;\n        }\n\n        Allocation storage partnerA = partnerAllocations[msg.sender];\n        if (partnerA.amountGranted > 0 && !partnerA.isClaimed && canClaimPartnerTokens) {\n            amountToTransfer = partnerA.amountGranted;\n\n            require(amountToTransfer <= currentSupply);\n            require(tokenContract.transfer(msg.sender, amountToTransfer));\n\n            currentSupply = currentSupply.sub(amountToTransfer);\n            partnerA.isClaimed = true;\n\n            AllocationClaimed(msg.sender, amountToTransfer, 2);\n            hasTransferedTokens = true;\n        }\n\n        require(hasTransferedTokens);\n        return true;\n    }\n\n    modifier onlyAfterOpenClaim() {\n        require(canClaimTokens);\n        _;\n    }\n\n    // Updates the canClaimTokens propety with the new _canClaimTokens value\n    function setCanClaimTokens(bool _canClaimTokens) external onlyAdminAndOps returns (bool) {\n        canClaimTokens = _canClaimTokens;\n        return true;\n    }\n\n    // Updates the canClaimPresaleTokens propety with the new _canClaimTokens value\n    function setCanClaimPresaleTokens(bool _canClaimTokens) external onlyAdminAndOps returns (bool) {\n        canClaimPresaleTokens = _canClaimTokens;\n        return true;\n    }\n\n    // Updates the canClaimPartnerTokens propety with the new _canClaimTokens value\n    function setCanClaimPartnerTokens(bool _canClaimTokens) external onlyAdminAndOps returns (bool) {\n        canClaimPartnerTokens = _canClaimTokens;\n        return true;\n    }\n\n    // Updates the crowdsale contract propety with the new _crowdsaleContract value\n    function setCrowdsaleContract(Crowdsale _crowdsaleContract) public onlyOwner returns (bool) {\n        crowdsaleContract = _crowdsaleContract;\n        return true;\n    }\n}",
  "sourcePath": "/Volumes/Workspace/projects/jumbo-contracts/contracts/Ledger.sol",
  "compiler": {
    "name": "solc",
    "version": "0.4.18+commit.9cf6e910.Emscripten.clang"
  },
  "schemaVersion": "1.0.1",
  "updatedAt": "2018-01-20T22:26:13.864Z"
}